:100000007BC00000A7C00000A5C00000A3C0000086
:10001000A1C000009FC000009DC000009BC0000068
:1000200099C0000097C0000095C0000093C0000078
:1000300091C000008FC000008DC000008BC0000088
:1000400089C0000087C0000085C0000083C0000098
:1000500081C000007FC000007DC000007BC00000A8
:1000600079C0000077C0000075C0000073C00000B8
:1000700071C000006FC000006DC000006BC00000C8
:1000800069C0000067C0000065C0000063C00000D8
:1000900061C000005FC000005DC000005BC00000E8
:1000A00059C0000057C0000055C0000053C00000F8
:1000B00051C000004FC000004DC000004BC0000008
:1000C00049C0000047C0000045C0000043C0000018
:1000D00041C000003FC000003DC000003BC0000028
:1000E00039C00000B201C301D401E501F6010702E5
:1000F000180229024901560111241FBECFEFD1E297
:10010000DEBFCDBF00E00CBF12E0A0E0B2E0E0E84F
:10011000F7E000E00BBF02C007900D92A630B107D8
:10012000D9F722E0A6E0B2E001C01D92A732B207E3
:10013000E1F710E0CBE7D0E000E005C0219701092E
:10014000802FFE01D7D1CA37D10780E00807B1F769
:100150002AD005C355CF0F931F93CF93D8018C910D
:10016000922F90959823282BCFB7F89441155105DD
:10017000A9F0FB01640F751F819138E02C9300C03A
:1001800087FF9C93880F00C000C000C008F49C93B8
:1001900000C03A9599F7E617F70771F7CFBFCF91EF
:1001A0001F910F91089586E192E089D1C6E0D2E0D7
:1001B000FF24FA940F2EF8E2EF2EF02D0F2EFFE021
:1001C000DF2EF02DFA82F882F9822091060230911A
:1001D00007024091080260E070E086E192E083D07F
:1001E00000E010E031C0FA82F882F9822091060224
:1001F0003091070240910802B80186E192E073D085
:10020000101611067CF4EA82E882E9822091060247
:100210003091070240910802B8016150710986E1EE
:1002200092E061D0023011057CF0DA82D882D98266
:10023000209106023091070240910802B8016250F5
:10024000710986E192E04FD0033011057CF01A82EB
:10025000188219822091060230910702409108020B
:10026000B8016350710986E192E03DD086E192E0E9
:1002700001D12FEF89EF90E0215080409040E1F7CD
:1002800000C000000F5F1F4F0436110509F0ABCF0F
:1002900099CF40E064E670E086E192E00ED041E064
:1002A0006AE070E089E092E008C0089589E092E099
:1002B00045D086E192E042C00895CF93DF93EC01F0
:1002C000798368834C87CB01880F991F860F971F0E
:1002D00019D19B838A831D8281E08C8382E08E8387
:1002E000DF91CF910895CF93DF93EC0188819981BD
:1002F00068177907F8F4FB01EE0FFF1F6E0F7F1FE1
:100300008C81AA81BB81A60FB71FA80FB11D3C939A
:100310008D81AA81BB81A60FB71FA80FB11D2C9399
:100320008E81EA81FB81E60FF71FE80FF11D408304
:1003300080E001C081E0DF91CF910895FC018281CE
:10034000938175C10895DC011C964C911C9750E077
:100350004830510508F08DC0FA018827EE58FF4F4C
:100360008F4FC8C080E41B968C931B9785E290E06A
:1003700018969C938E93179784E290E01A969C931C
:100380008E931997089580E81B968C931B9785E2AE
:1003900090E018969C938E93179784E290E01A96BB
:1003A0009C938E931997089580E81B968C931B97C6
:1003B00085E091E018969C938E93179784E091E0E6
:1003C0001A969C938E931997089580E41B968C93AC
:1003D0001B9785E091E018969C938E93179784E085
:1003E00091E01A969C938E931997089580E81B9636
:1003F0008C931B9781E390E018969C938E931797AC
:1004000080E390E01A969C938E931997089580E468
:100410001B968C931B9781E390E018969C938E9388
:10042000179780E390E01A969C938E9319970895FE
:1004300081E01B968C931B9788E091E018969C9323
:100440008E93179787E091E01A969C938E93199755
:10045000089582E01B968C931B9788E091E0189694
:100460009C938E93179787E091E01A969C938E93B6
:1004700019970895EF92FF920F931F93CF93DF93F5
:10048000EC0161DFE985FA8590818B85892B80837A
:10049000E984FA840F81188548815981CA01880F3F
:1004A000991F480F591F6A817B812B85CE0153DE2E
:1004B000DF91CF911F910F91FF90EF900895DC0194
:1004C0002D913C911197A901440F551F420F531FC5
:1004D0001416150674F420E030E01296ED91FC91AC
:1004E0001397E20FF31F10822F5F3F4F42175307FE
:1004F000A1F70895EE0FFF1F881F8BBF0790F6919D
:10050000E02D1994CF93DF938230910510F482E0AF
:1005100090E0E0912502F091260220E030E0C0E07A
:10052000D0E0309711F14081518148175907C0F050
:100530004817590761F482819381209719F09B83B2
:100540008A832BC0909326028093250226C0211512
:10055000310519F04217530718F49A01BE01DF0163
:10056000EF010280F381E02DDCCF2115310509F187
:10057000281B390B2430310590F412968D919C91F3
:1005800013976115710521F0FB019383828304C0E9
:100590009093260280932502FD01329644C0FD010E
:1005A000E20FF31F81939193225031092D933C93D5
:1005B0003AC02091230230912402232B41F4209150
:1005C00002023091030230932402209323022091EF
:1005D0000002309101022115310541F42DB73EB7DB
:1005E0004091040250910502241B350BE091230237
:1005F000F0912402E217F307A0F42E1B3F0B2817FB
:10060000390778F0AC014E5F5F4F2417350748F08B
:100610004E0F5F1F509324024093230281939193C6
:1006200002C0E0E0F0E0CF01DF91CF9108950F9399
:100630001F93CF93DF93009709F48CC0FC0132978E
:1006400013821282009125021091260201151105D4
:1006500081F420813181820F931F209123023091F8
:1006600024022817390779F5F0932402E093230236
:1006700071C0D80140E050E0AE17BF0750F41296A9
:100680002D913C911397AD012115310509F1D90147
:10069000F3CF9D01DA013383228360817181860F5C
:1006A000971F8217930769F4EC0128813981260F7F
:1006B000371F2E5F3F4F318320838A819B81938335
:1006C0008283452B29F4F0932602E093250242C051
:1006D0001396FC93EE931297ED01499159919E0167
:1006E000240F351FE217F30771F480819181840F85
:1006F000951F029611969C938E93828193811396F7
:100700009C938E931297E0E0F0E0D80112968D91C1
:100710009C911397009719F0F8018C01F6CF8D91F9
:100720009C9198012E5F3F4F820F931F20912302CF
:10073000309124022817390769F4309729F4109270
:1007400026021092250202C0138212821093240204
:1007500000932302DF91CF911F910F91089510E034
:10076000CBE7D0E000E005C0802FFE01C3DE21967C
:10077000011DCC37D10780E00807B1F7F894FFCF0F
:060780000000270220002A
:00000001FF
