:1000000079C0000097C0000095C0000093C00000B8
:1000100091C000008FC000008DC000008BC00000A8
:1000200089C0000087C0000077C3000083C00000C3
:1000300081C000007FC000007DC000007BC00000C8
:1000400079C0000077C0000075C0000073C00000D8
:1000500071C0000074C300006DC000006BC00000E0
:1000600069C0000067C0000065C0000063C00000F8
:1000700061C000005FC000005DC000005BC0000008
:1000800059C0000057C0000055C0000053C0000018
:1000900051C000004FC000004DC000004BC0000028
:1000A00049C0000047C0000045C0000043C0000038
:1000B00041C000003FC000003DC000003BC0000048
:1000C00039C0000037C0000035C0000033C0000058
:1000D00031C000002FC000002DC000002BC0000068
:1000E00029C00000770988099909AA09BB09CC0928
:1000F000DD09EE0911241FBECFEFD1E2DEBFCDBF77
:1001000000E00CBF12E0A0E0B2E0E8E4FCE100E0B7
:100110000BBF02C007900D92AC3CB107D9F723E0AA
:10012000ACECB2E001C01D92A033B207E1F796D566
:100130000C94220E65CFFC01718360830895FC014D
:10014000808191818230910599F01CF4019739F0FA
:100150002AC083309105A9F00497E1F024C0660F0E
:10016000771F660F771F7093A9006093A80008950A
:10017000660F771F660F771F7093AB006093AA001E
:100180000895660F771F660F771F7093290160939C
:1001900028010895660F771F660F771F70932B0154
:1001A00060932A0108951092A9001092A80010925D
:1001B000AB001092AA00109229011092280110920F
:1001C0002B0110922A01089580EC8093B80084E0FE
:1001D0008093BC000895ECEBF0E084E9808310820A
:1001E0000895ECEBF0E080818823ECF708952F92DE
:1001F0003F924F925F926F927F928F929F92AF92B7
:10020000BF92CF92DF92EF92FF920F931F93CF9303
:10021000DF93482E262E4A010F2EF8EC3F2EF02DAC
:100220000F2EFCEBEF2EF12CF02D09EB10E00F2E32
:10023000FBEBCF2ED12CF02DC22FD0E05A01AC0E0B
:10024000BD1E08C03A94311005C088E092E016D473
:100250008AE073C00F2EF4EA5F2EF02D0F2EF4E823
:100260007F2EF02DF7015082BCDFF8018081887F5E
:100270008093CD02803149F08833A1F3883029F092
:100280008DE192E0FBD381E058C0F6014082F70196
:100290007082A7DFF8018081887F8093CD02803251
:1002A00089F28833F9F2883131F08CE292E0E6D3BA
:1002B00092DF82E042C0F6012082F701708291DF76
:1002C000F8018081887F8093CD02803349F08833A4
:1002D00049F2883241F41C161D065CF080E02DC006
:1002E0007ADF83E02AC08DE392E0C8D374DF84E034
:1002F00024C03401F30181913F01F601808384E839
:10030000F70180836EDFF8018081887F8093CD02C2
:10031000803331F0883309F4A1CF883221F409C049
:100320005ADF85E00AC08DE392E0A8D354DF86E06F
:1003300004C06A147B04F1F680E0DF91CF911F9135
:100340000F91FF90EF90DF90CF90BF90AF909F9074
:100350008F907F906F905F904F903F902F90089577
:10036000CF93DF931F92CDB7DEB7498321E0AE0173
:100370004F5F5F4F3CDF0F90DF91CF9108952F9239
:100380003F924F925F926F927F928F929F92AF9225
:10039000BF92CF92DF92EF92FF920F931F93CF9372
:1003A000DF9300D01F92CDB7DEB7882E662E5A831A
:1003B0004983522E0F2EF8EC7F2EF02D0F2EFCEBE2
:1003C000EF2EF12CF02D0F2EF9EBCF2ED12CF02D9E
:1003D0000BEB10E008C07A94711005C088E092E041
:1003E0004DD38AE0DCC00F2EF4E89F2EF02D0F2EA7
:1003F000F4EAAF2EF02DBA2CD701BC92F2DEF60152
:100400009081987F9093CD02903149F09833A1F379
:10041000983029F08DE192E031D381E0C0C0D8015D
:100420008C92F7019082DDDED6019C91987F9093AB
:10043000CD02903281F29833F9F2983131F08CE2AA
:1004400092E01CD3C8DE82E0AAC0F8016082D70126
:100450009C92C7DEF6018081887F8093CD02803335
:1004600029F0883349F2883221F409C0B4DE83E0F0
:1004700096C08DE392E002D3AEDE84E090C0D70157
:10048000AC92AFDEF6018081887F8093CD0280310F
:1004900059F0883309F4B0CF883031F084E592E028
:1004A000EDD299DE85E07BC0882D8160D8018C93E8
:1004B000F701908296DED6018C91887F8093CD02E1
:1004C000803429F0883459F0883361F490CFE52DD9
:1004D000F0E0FC83EB831E161F0654F060C07BDE49
:1004E00086E05DC08DE592E0C9D275DE87E057C039
:1004F00089809A80C12CD12CEB80FC80F1E0EF1A2E
:10050000F1080F2EFCEB2F2E312CF02D0F2EF4ECDA
:100510004F2EF02D0F2EF4E85F2EF02D0F2EF9EB5D
:100520006F2E712CF02D0BEB10E05701EC14FD0435
:1005300019F4D1015C9202C0F101408252DED30174
:100540008C91887F8093CD028035A9F0883509F59C
:10055000AC14BD0451F48091BB00E981FA81EA0D2D
:10056000FB1D808338DE80E01AC089E692E086D2E7
:1005700032DE88E014C0F8018081D4018D934D01F2
:10058000BFEFCB1ADB0AEB81FC81CE16DF0669F6E2
:1005900006C08DE592E072D21EDE89E000C00F90A9
:1005A0000F900F900F90DF91CF911F910F91FF90BF
:1005B000EF90DF90CF90BF90AF909F908F907F9003
:1005C0006F905F904F903F902F900895CF93DF935F
:1005D0001F92CDB7DEB721E0AE014F5F5F4FCFDE98
:1005E000811102C0898101C08FEF0F90DF91CF91FF
:1005F0000895089565E780EDE9DF833721F08AE704
:1006000092E03CD2FFCF40E06BE680EDA9DE47E010
:1006100069E180EDA5DE46E06AE180EDA1DE40E122
:100620006BE180ED9DDE41E06CE180ED99DE81E0E3
:100630008093CE0208950F931F93CF93DF93CDB78E
:10064000DEB762970FB6F894DEBF0FBECDBF8C0148
:1006500022E1AE014F5F5F4F6BE380ED90DE8111D1
:1006600041C0898190E0982F88272A81822BF80148
:10067000918380838B8190E0982F88272C81822B17
:10068000938382838D8190E0982F88272E81822BFF
:10069000958384838F8190E0982F88272885822BEB
:1006A00097838683898590E0982F88272A85822BD7
:1006B000918780878B8590E0982F88272C85822BC7
:1006C000938782878D8590E0982F88272E85822BAF
:1006D00095878487898990E0982F88272A89822B9B
:1006E0009787868762960FB6F894DEBF0FBECDBFA0
:1006F000DF91CF911F910F9108958FEF87BD85B541
:10070000816085BD84B5826084BDEEE6F0E08081C5
:1007100082608083789408951F920F920FB60F9293
:1007200011248F9380912203882319F081E0809314
:10073000DA028F910F900FBE0F901F9018951F92A5
:100740000F920FB60F9211242F938F939F93809146
:10075000E2028823A1F08091D5029091D6028330E5
:10076000910544F081E08093DB021092D602109252
:10077000D50205C001969093D6028093D502809150
:10078000CC028823A9F08091D3029091D402883EB4
:1007900023E0920744F081E08093D9021092D402C2
:1007A0001092D30205C001969093D4028093D30295
:1007B00080912B038823A9F08091D1029091D202DD
:1007C000883B2BE0920744F081E08093D80210929E
:1007D000D2021092D10205C001969093D20280936A
:1007E000D1028091CE028823A9F08091CF0290910E
:1007F000D002803D27E0920744F081E08093D70249
:100800001092D0021092CF0205C001969093D002B0
:100810008093CF029F918F912F910F900FBE0F90D9
:100820001F901895CF93DF93EFE8F2E040E050E09F
:10083000A1E0B0E0C82FD0E09D01042E02C0220F3D
:10084000331F0A94E2F72C233D23042E02C0359572
:1008500027950A94E2F72130310559F422B1CD01F0
:10086000008002C0880F991F0A94E2F7822B82B998
:100870000CC022B1BD01008002C0660F771F0A9430
:10088000E2F7962F9095922392B94F5F5F4F329681
:100890004830510589F6A29ADF91CF910895A0982A
:1008A000A19817981698159814981398129811985B
:1008B000109AA29A0895CF93DF93EC01A098A19883
:1008C000179AEFE8F2E040E050E0A1E0B0E09D01CF
:1008D000042E02C0220F331F0A94E2F72C233D237B
:1008E000042E02C0359527950A94E2F72130310590
:1008F00059F422B1CD01008002C0880F991F0A94DB
:10090000E2F7822B82B90CC022B1BD01008002C087
:10091000660F771F0A94E2F7962F9095922392B96B
:100920004F5F5F4F32964730510589F6A29ADF91AB
:10093000CF910895A09AA1980895A098A19817988A
:10094000169815981498139A129A11981098A29ABA
:100950000895A098A19817981698159A149A139A22
:10096000129811981098A29A08950F931F93CF93FD
:10097000DF93E1E8F0E080818260808381B18FEFD6
:1009800081B983B3876083BB8ADF109284001092A1
:100990008500A4E8B0E0E5E8F0E08C91208190E0EB
:1009A000922B84369105CCF3A4E8B0E01C92E5E8E4
:1009B000F0E01082A2981C9210828C91208190E02D
:1009C000922B883B9B40CCF304E810E0F8011082A6
:1009D000C5E8D0E01882B1DFF80110821882A4E8DF
:1009E000B0E0E5E8F0E08C91208190E0922B843635
:1009F0009105CCF304E810E0F8011082C5E8D0E0DE
:100A00001882A298A6DFF80110821882A4E8B0E04C
:100A1000E5E8F0E08C91208190E0922B84369105FE
:100A2000CCF31092840010928500A29881E080930C
:100A3000E202DF91CF911F910F9108950F931F93C1
:100A4000CF93DF93E7EFF2E0062F172FC3EED2E04C
:100A500047E053E0DC012D91CD012193D8012D9188
:100A60008D012993E417F507A9F710920803109256
:100A7000F402DF91CF911F910F910895CF93DF93EF
:100A8000EC01E7EFF2E0A3EEB2E027E033E090E222
:100A9000899181939D93E217F307D1F71092080390
:100AA000DF91CF910895CF938091E102823071F16F
:100AB00028F4882361F08130D9F09AC0843009F499
:100AC0005DC008F446C0853009F481C091C0E7DEFE
:100AD00080910602882319F01092060295C081E0E9
:100AE00080930602A2981092E0028093E1028CC0EB
:100AF000C091E002CE3130F082E08093E1021092AA
:100B0000DF0218DFCF5FC093E0027EC09091DF026A
:100B1000E92FF0E0E950FD4F80818093DE029031B3
:100B2000A0F4882391F090910602992321F07ADEB7
:100B30001092060269C0A29881E08093060280911B
:100B4000DF028F5F8093DF025FC083E08093E1026A
:100B50005BC080910602882331F080E490E0ABDE38
:100B60001092060251C0A29881E080930602109272
:100B7000DF0284E08093E102DDDE46C09091DF0277
:100B8000E92FF0E0ED51FD4F80818093DE0290313E
:100B9000A0F4882391F090910602992321F042DE7F
:100BA0001092060231C0A29881E0809306028091E3
:100BB000DF028F5F8093DF0227C01092DF02109266
:100BC000DD021092DC0285E08093E1021DC080917D
:100BD000DC029091DD02803D27E0920718F0109230
:100BE000E10212C001969093DD028093DC020CC0FA
:100BF00085E08093E1021092E0021092DD021092F3
:100C0000DC0281E080930602CF9108950F931F9339
:100C1000CF93D8018C91922F90959823282BCFB702
:100C2000F89441155105A9F0FB01640F751F8191DE
:100C300038E02C9300C087FF9C93880F00C000C051
:100C400000C008F49C9300C03A9599F7E617F7079F
:100C500071F7CFBFCF911F910F910895CF93DF937D
:100C6000CDB7DEB7CF54D1090FB6F894DEBF0FBEB3
:100C7000CDBF7BDE62E070E0CE01825B9F4F5BDA2E
:100C800061E070E0CE01845B9F4F55DA64E070E074
:100C9000CE01865B9F4F4FDA63E070E0CE01885B48
:100CA0009F4F49DA40E061E070E0CE01CB96CFD2B1
:100CB000CE0189969EDC59DE87DACE0189969ADCD0
:100CC0001CDD8E010B5E1F4FCE0101965C01402E94
:100CD000512E682E7B2C0F2EFFE9CF2EF2E0DF2E57
:100CE000F02D0F2EF9EAEF2EF2E0FF2EF02D0F2E51
:100CF000FBE08F2EF3E09F2EF02D33243394809170
:100D0000DB02882319F01092DB02CDDE8091DA023B
:100D1000882379F11092DA02B9D0809128038F9359
:100D2000809127038F9380912A038F9380912903C9
:100D30008F93DF92CF921F930F93BBD480912403A4
:100D40008F93809123038F93809126038F938091BB
:100D500025038F93FF92EF92BF92AF92AAD4662D94
:100D6000772D842D952D6ADE0FB6F894DEBF0FBE69
:100D7000CDBF8091D902882311F11092D9026091E0
:100D8000250370912603CE01825B9F4FD8D96091D5
:100D9000250370912603CE01845B9F4FD0D96091CB
:100DA000250370912603CE01865B9F4FC8D96091C1
:100DB000250370912603CE01885B9F4FC0D9809197
:100DC000D802882381F11092D802F4014081242FA7
:100DD000342F60E070E0CE01CB964FD2CE01CB969F
:100DE0000ED380910B0390910C038F3F910534F04B
:100DF00010920702181619068CF003C0181619066F
:100E00001CF03092070204C020910702222331F027
:100E1000019690930C0380930B0305C00197909368
:100E20000C0380930B032091D702222309F467CF90
:100E30001092D702CE018996FEDB8CA58F938BA5ED
:100E40008F938AA58F9389A58F9383EB92E09F93CD
:100E50008F931F930F932DD48AA98F9389A98F9372
:100E60008EA58F938DA58F938FEB92E09F938F9399
:100E7000BF92AF921ED4662D772D842D952DDEDD89
:100E80000FB6F894DEBF0FBECDBF25CF8091030112
:100E900085FF71C1809121038111C5C171C181E0BC
:100EA00080931E0302C010921E0380919400209133
:100EB000950090E0922B90931D0380931C0343C0F8
:100EC00080912103811166C13EC080911E03811172
:100ED00016C004C080911E03882389F0809194007D
:100EE0002091950090E0922B20911C0330911D03DE
:100EF000821B930B90932A038093290310C0809147
:100F000094002091950090E0922B20911C03309149
:100F10001D03821B930B90932A03809329038091D6
:100F2000200381110EC080911B0381110AC08091A2
:100F30001A03811106C080911903811102C0109219
:100F40001F03109220038091030184FF34C180911C
:100F5000180381116DC125C181E08093170302C080
:100F600010921703809194002091950090E0922BAD
:100F7000909316038093150343C080911803811149
:100F80001FC13EC080911703811116C004C080911B
:100F90001703882389F0809194002091950090E0B8
:100FA000922B2091150330911603821B930B909383
:100FB00028038093270310C080919400209195000E
:100FC00090E0922B2091150330911603821B930B16
:100FD00090932803809327038091200381110EC0F2
:100FE00080911B0381110AC080911A03811106C0F0
:100FF00080911903811102C010921F0310921B03EC
:101000008091030183FFE3C080911403811115C116
:10101000E3C081E08093130302C010921303809118
:1010200094002091950090E0922B9093120380936E
:10103000110343C0809114038111D8C03EC0809138
:101040001303811116C004C080911303882389F013
:10105000809194002091950090E0922B20911103B3
:1010600030911203821B930B9093260380932503E8
:1010700010C0809194002091950090E0922B2091D7
:10108000110330911203821B930B909326038093DC
:1010900025038091200381110EC080911B038111D3
:1010A0000AC080911A03811106C080911903811131
:1010B00002C010921F0310921A038091030182FF55
:1010C000A6C0809110038111BDC097C081E08093BC
:1010D0000F0302C010920F0380919400209195009D
:1010E00090E0922B90930E0380930D0308958091CE
:1010F0001003811191C0089580910F03811116C0D2
:1011000004C080910F03882389F08091940020917E
:10111000950090E0922B20910D0330910E03821BDD
:10112000930B909324038093230310C08091940029
:101130002091950090E0922B20910D0330910E03A9
:10114000821B930B909324038093230380912003AD
:1011500081110EC080911B0381110AC080911A0376
:10116000811106C080911903811102C010921F03E2
:101170001092190308958091030185FFA1CEE3CE5B
:1011800081E0809321038093200380911F038111CC
:1011900086CE89CE1092210380911F0381119ACEB1
:1011A00094CE81E08093180380931B0380911F03EA
:1011B0008111D2CED5CE8091030184FFDECE20CF27
:1011C0001092180380911F038111E1CEDBCE809134
:1011D000030183FF2FCF71CF81E0809314038093AD
:1011E0001A0380911F03811114CF17CF109214039B
:1011F00080911F03811128CF22CF81E080931003BB
:101200008093190380911F03811160CF63CF809178
:10121000030182FF6CCF08951092100380911F0389
:1012200081116FCF69CF8091030185FFB3CF8BCE42
:101230008091030184FFC4CFE3CE8091030183FF3B
:10124000D5CF3BCF8091030182FFE6CF0895CF93A6
:10125000DF93EC01798368834C87CB01880F991F5A
:10126000860F971FF9D09B838A831D8281E08C8330
:1012700082E08E83DF91CF910895CF93DF93EC01CD
:101280008881998168177907F8F4FB01EE0FFF1F39
:101290006E0F7F1F8C81AA81BB81A60FB71FA80F7D
:1012A000B11D3C938D81AA81BB81A60FB71FA80FEA
:1012B000B11D2C938E81EA81FB81E60FF71FE80FA9
:1012C000F11D408380E001C081E0DF91CF9108955E
:1012D000DC011C964C911C9750E04830510508F0F9
:1012E0008DC0FA018827EE58FF4F8F4FADC080E4C4
:1012F0001B968C931B9785E290E018969C938E9397
:10130000179784E290E01A969C938E93199708950C
:1013100080E81B968C931B9785E290E018969C932F
:101320008E93179784E290E01A969C938E93199768
:10133000089580E81B968C931B9785E091E01896A2
:101340009C938E93179784E091E01A969C938E93CA
:101350001997089580E41B968C931B9785E091E084
:1013600018969C938E93179784E091E01A969C931D
:101370008E931997089580E81B968C931B9781E3B1
:1013800090E018969C938E93179780E390E01A96BE
:101390009C938E931997089580E41B968C931B97CA
:1013A00081E390E018969C938E93179780E390E0EA
:1013B0001A969C938E931997089581E01B968C93AF
:1013C0001B9788E091E018969C938E93179787E07F
:1013D00091E01A969C938E931997089582E01B963C
:1013E0008C931B9788E091E018969C938E931797A7
:1013F00087E091E01A969C938E9319970895EF9247
:10140000FF920F931F93CF93DF93EC0161DFE98588
:10141000FA8590818B85892B8083E984FA840F81FA
:10142000188548815981CA01880F991F480F591F93
:101430006A817B812B85CE01E9DBDF91CF911F9102
:101440000F91FF90EF900895EE0FFF1F881F8BBF45
:101450000790F691E02D1994CF93DF938230910598
:1014600010F482E090E0E0912E03F0912F0320E051
:1014700030E0C0E0D0E0309711F140815181481751
:101480005907C0F04817590761F48281938120976A
:1014900019F09B838A832BC090932F0380932E0394
:1014A00026C02115310519F04217530718F49A0187
:1014B000BE01DF01EF010280F381E02DDCCF2115B9
:1014C000310509F1281B390B2430310590F41296AF
:1014D0008D919C9113976115710521F0FB01938308
:1014E000828304C090932F0380932E03FD013296D4
:1014F00044C0FD01E20FF31F819391932250310903
:101500002D933C933AC020912C0330912D03232B33
:1015100041F4209102023091030230932D03209375
:101520002C0320910002309101022115310541F474
:101530002DB73EB74091040250910502241B350B94
:10154000E0912C03F0912D03E217F307A0F42E1B7A
:101550003F0B2817390778F0AC014E5F5F4F241717
:10156000350748F04E0F5F1F50932D0340932C0317
:101570008193919302C0E0E0F0E0CF01DF91CF9141
:1015800008950F931F93CF93DF93009709F48CC0B6
:10159000FC0132971382128200912E0310912F03C7
:1015A0000115110581F420813181820F931F209153
:1015B0002C0330912D032817390779F5F0932D036B
:1015C000E0932C0371C0D80140E050E0AE17BF0794
:1015D00050F412962D913C911397AD0121153105D0
:1015E00009F1D901F3CF9D01DA01338322836081B0
:1015F0007181860F971F8217930769F4EC01288188
:101600003981260F371F2E5F3F4F318320838A8118
:101610009B8193838283452B29F4F0932F03E093DE
:101620002E0342C01396FC93EE931297ED0149915D
:1016300059919E01240F351FE217F30771F4808141
:101640009181840F951F029611969C938E938281AF
:10165000938113969C938E931297E0E0F0E0D8016B
:1016600012968D919C911397009719F0F8018C01B7
:10167000F6CF8D919C9198012E5F3F4F820F931F63
:1016800020912C0330912D032817390769F43097E6
:1016900029F410922F0310922E0302C0138212829B
:1016A00010932D0300932C03DF91CF911F910F9185
:1016B00008950F931F93CF93DF93CDB7DEB72E9787
:1016C0000FB6F894DEBF0FBECDBF0E891F8986E02E
:1016D0008C831A8309838FEF9FE79E838D83AE01EE
:1016E000465E5F4F688D798DCE01019611D02F81B6
:1016F0003885F801E20FF31F10822E960FB6F8948A
:10170000DEBF0FBECDBFDF91CF911F910F91089526
:101710002F923F924F925F926F927F928F929F9201
:10172000AF92BF92CF92DF92EF92FF920F931F93EF
:10173000CF93DF93CDB7DEB72C970FB6F894DEBF0B
:101740000FBECDBF7C016B018A01FC01178216829E
:10175000838181FFB0C1CE0101964C01F7019381D5
:10176000F60193FD859193FF81916F01882309F420
:101770009EC1853239F493FD859193FF81916F016C
:10178000853221F4B70190E0C7D1E8CF512C312C3C
:1017900020E02032A0F48B3269F030F4803259F02E
:1017A000833269F420612CC08D3239F0803339F4F2
:1017B000216026C02260246023C0286021C027FD4C
:1017C00027C030ED380F3A3078F426FF06C0FAE033
:1017D0005F9E300D1124532E13C08AE0389E300DC9
:1017E0001124332E20620CC08E3221F426FD5FC1FD
:1017F000206406C08C3611F4206802C0883641F49B
:10180000F60193FD859193FF81916F018111C1CF05
:10181000982F9F7D9554933028F40C5F1F4FFFE362
:10182000F9830DC0833631F0833771F0833509F0C9
:1018300057C021C0F801808189830E5F1F4F442467
:101840004394512C540114C03801F2E06F0E711C06
:10185000F801A080B18026FF03C0652D70E002C0B2
:101860006FEF7FEFC5012C874CD12C0183012C85B4
:101870002F77222E16C03801F2E06F0E711CF8018E
:10188000A080B18026FF03C0652D70E002C06FEF1D
:101890007FEFC5012C872AD12C012C852068222EB0
:1018A000830123FC19C0832D90E048165906A0F44B
:1018B000B70180E290E030D13A94F5CFF50127FCF2
:1018C000859127FE81915F01B70190E025D131100C
:1018D0003A94F1E04F1A51084114510479F7DEC0EF
:1018E000843611F0893631F5F80127FF07C0608191
:1018F0007181828193810C5F1F4F08C0608171816B
:10190000072E000C880B990B0E5F1F4F2F76722E3F
:1019100097FF09C090958095709561957F4F8F4F87
:101920009F4F2068722E2AE030E0A4012DD1A82E0E
:10193000A81843C0853729F42F7EB22E2AE030E064
:1019400025C0F22FF97FBF2E8F36C1F018F48835ED
:1019500079F0ADC0803719F0883721F0A8C02F2F5B
:101960002061B22EB4FE0DC08B2D8460B82E09C04C
:1019700024FF0AC09F2F9660B92E06C028E030E0F1
:1019800005C020E130E002C020E132E0F801B7FEFE
:1019900007C060817181828193810C5F1F4F06C0F7
:1019A0006081718180E090E00E5F1F4FA401ECD058
:1019B000A82EA818FB2DFF777F2E76FE0BC0372DA3
:1019C0003E7FA51450F474FE0AC072FC08C0372D87
:1019D0003E7E05C0BA2C372D03C0BA2C01C0B52CF1
:1019E00034FF0DC0FE01EA0DF11D8081803311F43A
:1019F000397E09C032FF06C0B394B39404C0832F6C
:101A0000867809F0B39433FD12C030FF06C05A2C1B
:101A1000B31418F4530C5B18B32CB31460F4B7016F
:101A200080E290E03C8778D0B3943C85F6CFB31445
:101A300010F43B1801C0312C34FF11C0B70180E312
:101A400090E03C8769D03C8532FF16C031FD03C071
:101A500088E790E002C088E590E0B7010CC0832FD2
:101A6000867851F031FF02C08BE201C080E237FD81
:101A70008DE2B70190E050D0A51430F4B70180E3B7
:101A800090E04AD05A94F8CFAA94F401EA0DF11DDF
:101A90008081B70190E040D0A110F6CF332009F447
:101AA0005DCEB70180E290E037D03A94F7CFF701EE
:101AB0008681978102C08FEF9FEF2C960FB6F89426
:101AC000DEBF0FBECDBFDF91CF911F910F91FF9071
:101AD000EF90DF90CF90BF90AF909F908F907F90CE
:101AE0006F905F904F903F902F900895FC0105906C
:101AF000615070400110D8F7809590958E0F9F1F10
:101B00000895FC016150704001900110D8F7809554
:101B100090958E0F9F1F08950F931F93CF93DF9380
:101B2000FB01238121FD03C08FEF9FEF28C022FF1F
:101B300016C046815781248135814217530744F4EA
:101B4000A081B1819D012F5F3F4F318320838C9312
:101B5000268137812F5F3F4F3783268310C0EB01EB
:101B6000092F182F0084F185E02D1995892BE1F6B6
:101B70008E819F8101969F838E83812F902FDF918D
:101B8000CF911F910F910895FA01AA27283051F1A2
:101B9000203181F1E8946F936E7F6E5F7F4F8F4F9E
:101BA0009F4FAF4FB1E03ED0B4E03CD0670F781FFD
:101BB000891F9A1FA11D680F791F8A1F911DA11DE2
:101BC0006A0F711D811D911DA11D20D009F468941B
:101BD0003F912AE0269F11243019305D3193DEF6C3
:101BE000CF010895462F4770405D4193B3E00FD079
:101BF000C9F7F6CF462F4F70405D4A3318F0495D64
:101C000031FD4052419302D0A9F7EACFB4E0A69546
:101C10009795879577956795BA95C9F70097610568
:101C2000710508959B01AC010A2E069457954795BE
:101C300037952795BA95C9F7620F731F841F951FB3
:081C4000A01D0895F894FFCFE8
:101C48000000300320000101536C617665206E6F3F
:101C58007420726573706F6E64696E670053746187
:101C6800727420493243206661696C00496E76615E
:101C78006C6964207068797320616464004E6F2019
:101C8800446174612041636B2066726F6D20536CF0
:101C9800617665005273206572726F72004D525FF3
:101CA800534C415F41434B200054575F4D525F44B2
:101CB8004154415F4E41434B20004572726F722080
:101CC80072656164696E672053656E736F72000098
:101CD80000010002000300040005000600070031AF
:101CE8003A257520323A257500333A257520343A5D
:101CF80025750061783A25752061793A2575006166
:0C1D08007A3A25752067783A25750000AE
:00000001FF
