:1000000071C0000090C000008EC000008CC00000D5
:100010008AC0000088C0000086C0000084C00000C4
:1000200082C00000AEC40000C9C400007CC0000053
:100030007AC0000078C0000076C0000074C00000E4
:1000400072C0000070C000006EC000006CC00000F4
:100050006AC0000068C0000066C0000064C0000004
:1000600062C0000060C000005EC000005CC0000014
:100070005AC0000058C0000056C0000054C0000024
:1000800052C0000050C000004EC0000089C60000F1
:100090004AC0000048C0000046C0000044C0000044
:1000A00042C0000040C000003EC000003CC0000054
:1000B0003AC0000038C0000036C0000034C0000064
:1000C00032C0000030C000002EC000002CC0000074
:1000D0002AC0000028C0000026C0000024C0000084
:1000E00022C0000011241FBECFEFD1E2DEBFCDBF82
:1000F00000E00CBF12E0A0E0B2E0E8EAF7E100E0C7
:100100000BBF02C007900D92A43CB107D9F722E0C3
:10011000A4ECB2E001C01D92AA3FB207E1F70E9431
:10012000A6080C94D20B6CCF0895E0EAF0E0808131
:10013000826A8083E0E2F1E08081826A8083E1EA82
:10014000F0E0808181618083E1E2F1E08081816182
:10015000808380E090E19093A7008093A600909325
:100160002701809326011092A9001092A8001092F6
:10017000AB001092AA00109229011092280110924F
:100180002B0110922A01EAE0F1E0808188618083EE
:10019000E1E0F1E08081886180831092A5001092F7
:1001A000A400109225011092240108950895089545
:1001B000ECEBF0E084E9808310820895ECEBF0E052
:1001C00080818823ECF708955CD680E092E01FD709
:1001D0002FE78AE196E0215080409040E1F700C08F
:1001E0000000E6CF08952F923F924F925F926F9258
:1001F0007F928F929F92AF92BF92CF92DF92EF92B7
:10020000FF920F931F93CF93DF93462E342E6901F5
:100210000F2EF8EC2F2EF02D0F2EFCEBEF2EF12CE5
:10022000F02DC9EBD0E00F2EFBEBAF2EB12CF02D53
:1002300010E04901800E911E12C02A9421100FC0B7
:1002400020D68AE092E0E3D62FE78AE196E02150BB
:1002500080409040E1F700C000008AE09CC00F2E73
:10026000F4EA5F2EF02D0F2EF4E87F2EF02DF7012B
:100270005082A4DF8881887F8093C402803199F006
:100280008833A9F3883079F0FCD58FE192E0BFD6AE
:10029000FFE72AE186E0F15020408040E1F700C00E
:1002A000000081E078C0F5014082F701708286DFAE
:1002B0008881887F8093C402803209F4BECF88335E
:1002C000B1F2883189F0DDD58EE292E0A0D6FFE769
:1002D0002AE186E0F15020408040E1F700C00000B4
:1002E00073DF66DF82E057C0F5013082F70170826C
:1002F00065DF8881887F8093C402803351F0883322
:1003000009F4B5CF883241F410161106B4F080E03C
:1003100042C04EDF83E03FC0B4D58FE392E077D692
:10032000FFE72AE186E0F15020408040E1F700C07D
:1003300000004ADF3DDF84E02EC03601F3018191E9
:100340003F01F501808324E8F701208337DF8881AE
:10035000887F8093C402803331F0883309F483CFDF
:10036000883221F414C024DF85E015C08AD58FE3DC
:1003700092E04DD68FE79AE1E6E081509040E04070
:10038000E1F700C0000020DF13DF86E004C068143E
:100390007904A1F680E0DF91CF911F910F91FF903A
:1003A000EF90DF90CF90BF90AF909F908F907F9015
:1003B0006F905F904F903F902F9008950F93CF9341
:1003C000DF931F92CDB7DEB7298301E09E012F5F37
:1003D0003F4F09DF0F90DF91CF910F9108952F923A
:1003E0003F924F925F926F927F928F929F92AF92C5
:1003F000BF92CF92DF92EF92FF920F931F93CF9312
:10040000DF93762E542E79010F2EF8EC6F2EF02DFF
:100410000F2EFCEBCF2ED12CF02DC9EBD0E00F2E00
:10042000FBEBAF2EB12CF02D12C06A9461100FC0FF
:1004300028D586E592E0EBD52FE78AE196E02150BA
:1004400080409040E1F700C000008AE01DC10F2EFF
:10045000F4E88F2EF02D0F2EF4EA9F2EF02D192D9B
:10046000F6011083ABDE8881887F8093C4028031DF
:1004700099F08833A9F3883079F003D58FE192E0C1
:10048000C6D5FFE72AE186E0F15020408040E1F741
:1004900000C0000081E0F8C0F5017082F6018082A2
:1004A0008DDE8881887F8093C402803209F4BDCFBD
:1004B0008833B1F2883189F0E4D48EE292E0A7D596
:1004C000FFE72AE186E0F15020408040E1F700C0DC
:1004D00000007ADE6DDE82E0D7C0F5015082F601C1
:1004E00080826CDE8881887F8093C402803331F003
:1004F000883309F4B5CF883221F414C059DE83E083
:10050000C3C0BFD48FE392E082D5FFE72AE186E043
:10051000F15020408040E1F700C0000055DE48DE89
:1005200084E0B2C0F601908249DE8881887F8093A2
:10053000C4028031B1F0883309F492CF883089F059
:10054000A0D48BE692E063D5FFE72AE186E0F15084
:1005500020408040E1F700C0000036DE29DE85E063
:1005600093C0872D8160F5018083F601808226DEAD
:100570008881887F8093C402803429F0883449F0D0
:10058000883351F468CFC02FD0E01C161D06ACF0A4
:100590007BC00EDE86E078C074D484E792E037D565
:1005A000FFE72AE186E0F15020408040E1F700C0FB
:1005B00000000ADEFDDD87E067C04701A12CB12CF9
:1005C0008E01015011090F2EFCEB2F2E312CF02D36
:1005D0000F2EF4EC4F2EF02D0F2EF4E85F2EF02DA1
:1005E0000F2EF9EB6F2E712CF02D68010A151B05EB
:1005F00019F4F101508202C0F1014082DFDDF30104
:100600008081887F8093C4028035F9F0883559F560
:10061000CA14DB0449F48091BB00F701EC0DFD1D09
:100620008083C6DD80E030C02CD480E892E0EFD437
:10063000FFE72AE186E0F15020408040E1F700C06A
:100640000000C2DDB5DD88E01FC0EBEBF0E080818B
:10065000F40181934F01FFEFAF1ABF0AAC16BD063C
:1006600009F0C3CF11C00DD484E792E0D0D42FE7B6
:100670008AE196E0215080409040E1F700C0000000
:10068000A3DD96DD89E000C0DF91CF911F910F912E
:10069000FF90EF90DF90CF90BF90AF909F908F90A2
:1006A0007F906F905F904F903F902F9008950F93A1
:1006B000CF93DF931F92CDB7DEB701E09E012F5F8E
:1006C0003F4F8DDE811102C0898101C08FEF0F90F5
:1006D000DF91CF910F9108950895EF92FF920F93BC
:1006E000CF93DF93CDB7DEB763970FB6F894DEBF35
:1006F0000FBECDBF7C016B8B02E19E012F5F3F4F90
:100700004BE360EDCE0143966ADE811141C08981E1
:1007100090E0982F88272A81822BF701918380838C
:100720008D8190E0982F88272E81822B958384835A
:100730008F8190E0982F88272885822B938382834E
:10074000898590E0982F88272A85822B9783868336
:100750008B8590E0982F88272C85822B9187808726
:100760008D8590E0982F88272E85822B938782870E
:100770008F8590E0982F88272889822B95878487FA
:10078000898990E0982F88272A89822B97878687E6
:1007900063960FB6F894DEBF0FBECDBFDF91CF9149
:1007A0000F91FF90EF900895CF93DF931F92CDB7F5
:1007B000DEB789834AEA6EEECE01019678DF90E0DB
:1007C0009093DA028093D9024CEA6EEECE01019644
:1007D0006EDF90E09093D8028093D7024EEA6EEEDF
:1007E000CE01019664DF90E09093D6028093D5020B
:1007F00040EB6EEECE0101965ADF90E09093CA0274
:100800008093C90242EB6EEECE01019650DF90E07C
:100810009093C8028093C70244EB6EEECE0101961E
:1008200046DF90E09093C6028093C50246EB6EEEE1
:10083000CE0101963CDF90E09093D4028093D302E6
:1008400048EB6EEECE01019632DF90E09093D2023B
:100850008093D1024AEB6EEECE01019628DF90E044
:100860009093D0028093CF024CEB6EEECE010196B6
:100870001EDF90E09093CE028093CD024EEB6EEEA1
:10088000CE01019614DF90E09093CC028093CB02CE
:100890000F90DF91CF910895CF93DF931F92CDB743
:1008A000DEB7698380E080DF89EF8093B80020E0C5
:1008B0004BE660EDCE01019681DD27E049E160ED78
:1008C000CE0101967BDD26E04AE160EDCE01019686
:1008D00075DD20E14BE160EDCE0101966FDD21E099
:1008E0004CE160EDCE01019669DD45E760EDCE019A
:1008F0000196DDDE833729F0C4D281E992E087D307
:10090000FFCF0F90DF91CF910895E8E6F0E080816E
:1009100083608083EBE6F0E0808180618083ECE699
:10092000F0E08081806F8083789408951092F702C0
:100930001092F6021092F5021092F4021092F30255
:100940001092F2021092F1021092F0021092EF0255
:100950001092EE021092ED021092EC021092EB0255
:100960001092EA021092E9021092E802E1E9F0E046
:10097000808181608083E1E7F0E080818160808315
:1009800008951F920F920FB60F9211248F939F9389
:100990001C9B04C081E08093F90203C081E0809336
:1009A000F80287E893E10197F1F700C000009F91FA
:1009B0008F910F900FBE0F901F9018951F920F925E
:1009C0000FB60F9211242F933F934F936F937F9302
:1009D0008F939F938091030183FF6BC18091F702F6
:1009E0008111BFC16BC181E08093DE0202C0109211
:1009F000DE02809194002091950090E0922B9093DC
:100A0000E7028093E6023FC08091F702811160C146
:100A10003AC08091DE02811116C004C08091DE02CE
:100A2000882389F0809194002091950090E0922B8A
:100A30002091E6023091E702821B930B9093EF0224
:100A40008093EE0210C0809194002091950090E078
:100A5000922B2091E6023091E702821B930B909338
:100A6000EF028093EE021092F3028091F202811164
:100A70000AC08091F102811106C08091F0028111BB
:100A800002C01092DF028091030184FF32C1809185
:100A9000F60281116BC123C181E08093DD0202C0A7
:100AA0001092DD02809194002091950090E0922BAD
:100AB0009093E5028093E4023FC08091F602811199
:100AC0001DC13AC08091DD02811116C004C0809121
:100AD000DD02882389F0809194002091950090E0B8
:100AE000922B2091E4023091E502821B930B9093AC
:100AF000ED028093EC0210C080919400209195004B
:100B000090E0922B2091E4023091E502821B930B3E
:100B10009093EF028093EE021092F2028091F30222
:100B200081110AC08091F102811106C08091F0020A
:100B3000811102C01092DF028091030185FFEFC096
:100B40008091F502811117C1E0C081E08093DC0241
:100B500002C01092DC02809194002091950090E0F8
:100B6000922B9093E3028093E20244C08091F502BD
:100B70008111DAC03FC08091DC02811116C004C02F
:100B80008091DC02882389F0809194002091950067
:100B900090E0922B2091E2023091E302821B930BB2
:100BA0009093EB028093EA0215C0909194004091DB
:100BB00095006091E2027091E30222E030E0261B92
:100BC000370B892F90E0942B820F931F9093EB02A9
:100BD0008093EA021092F1028091F30281110AC01F
:100BE0008091F202811106C08091F002811102C051
:100BF0001092DF028091030186FFA7C08091F4026A
:100C00008111BEC098C081E08093DB0202C01092C7
:100C1000DB02809194002091950090E0922B9093BC
:100C2000E1028093E002B0C08091F402811192C091
:100C3000ABC08091DB02811116C004C08091DB0241
:100C4000882389F0809194002091950090E0922B68
:100C50002091E0023091E102821B930B9093E90214
:100C60008093E80215C090919400409195006091A6
:100C7000E0027091E10223E030E0261B370B892F60
:100C800090E0942B820F931F9093E9028093E802E7
:100C90001092F0028091F302811176C08091F202ED
:100CA000811172C08091F10281116EC01092DF0239
:100CB0006BC08091030183FFA7CEE5CE81E08093D6
:100CC000F7028093F3028091DF0281118CCE8FCEE8
:100CD0001092F7028091DF028111A0CE9ACE81E0BE
:100CE0008093F6028093F2028091DF028111D4CECC
:100CF000D7CE8091030184FFE0CE1ECF1092F60282
:100D00008091DF028111E3CEDDCE81E08093F50298
:100D10008093F1028091DF02811117CF1ACF809169
:100D2000030185FF23CF66CF1092F5028091DF0289
:100D3000811126CF20CF81E08093F4028093F002CE
:100D40008091DF0281115FCF62CF8091030186FF26
:100D50006BCF1AC01092F4028091DF0281116ECF26
:100D600068CF8091030183FFB3CF8DCE80910301C3
:100D700084FFC4CFE1CE8091030185FFD5CF3ACF68
:100D80008091030186FFE6CF9F918F917F916F91B4
:100D90004F913F912F910F900FBE0F901F9018957C
:100DA0001F920F920FB60F9211248F9381E08093C0
:100DB000DF02C0988F910F900FBE0F901F90189573
:100DC000EBE0F1E0808180688083109284001092D3
:100DD0008500A4E8B0E0E5E8F0E08C91208190E0A7
:100DE000922B80399140CCF31092840010928500B0
:100DF000EBE0F1E080818F77808308950F931F935C
:100E0000CF93DF93E6EAF2E040E050E0C1E0D0E0CB
:100E1000082F10E0A8E0B1E09E01042E02C0220FCE
:100E2000331F0A94E2F720233123042E02C03595A4
:100E300027950A94E2F72130310559F42C91CE011F
:100E4000008002C0880F991F0A94E2F7822B8C93CE
:100E50000CC02C91BE01008002C0660F771F0A945F
:100E6000E2F7962F909592239C934F5F5F4F3296B7
:100E70004830510589F6A4DFDF91CF911F910F9182
:100E80000895EBE0F1E080818F7D808380818F7B0E
:100E90008083E8E0F1E080818F77808380818F7BA1
:100EA000808380818F7D808380818F7E808380811D
:100EB000877F808380818B7F808380818D7F80830B
:100EC0008081816080837CDF109284001092850095
:100ED000A4E8B0E0E5E8F0E08C91208190E0922B6E
:100EE000803D9740CCF310928400109285000895C5
:100EF0000F931F93CF93DF938C01EBE0F1E08081A0
:100F00008F7D808380818F7B8083E8E0F1E080812A
:100F100080688083E6EAF2E040E050E0C1E0D0E0A3
:100F2000A8E0B1E09E01042E02C0220F331F0A94F4
:100F3000E2F720233123042E02C0359527950A9429
:100F4000E2F72130310559F42C91CE01008002C026
:100F5000880F991F0A94E2F7822B8C930CC02C9176
:100F6000BE01008002C0660F771F0A94E2F7962F39
:100F7000909592239C934F5F5F4F32964730510577
:100F800089F61EDFDF91CF911F910F910895EBE05D
:100F9000F1E080818F7D808380818F7B8083E8E09A
:100FA000F1E080818F77808380818F7B8083808157
:100FB0008F7D808380818F7E80838081877F808307
:100FC00080818B7F808380818260808380818E7F1F
:100FD0008083F6DE1092840010928500A4E8B0E0D1
:100FE000E5E8F0E08C91208190E0922B803D9740E5
:100FF000CCF310928400109285000895EBE0F1E0AC
:1010000080818062808380818F7B808308950F93AD
:101010001F93CF93DF938C01F1DFF8018081811161
:1010200009C00EC0EBDEC017D10751F089918111C4
:10103000F9CF06C0E3DEE8012196005F1F4FF6CF2F
:10104000DF91CF911F910F910895EBE0F1E0808146
:101050008F7D808380818F7B8083E8E0F1E08081D9
:101060008F77808380818F7B808380818F7D808359
:1010700080818F7E8083808188608083808184608E
:10108000808380818D7F808380818E7F808398CED6
:101090000895EBE0F1E080818F7D808380818F7BFC
:1010A0008083E8E0F1E080818F77808380818F7B8F
:1010B0008083808180628083808180618083808161
:1010C0008860808380818B7F808380818D7F808317
:1010D00080818E7F808374CE0895EBE0F1E0808183
:1010E0008F7D808380818F7B8083E8E0F1E0808149
:1010F0008F77808380818F7B808380818F7D8083C9
:1011000080818F7E80838081877F808380818460DF
:10111000808380818260808380818E7F808350CEB7
:101120000895E1E8F0E0808181608083E7E0F1E00C
:1011300080818FEF8083EAE0F1E08081806E8083A0
:10114000A0DE83DFA6DFC9DF22CF0895CF93DF9330
:10115000CDB7DEB7A6970FB6F894DEBF0FBECDBFF2
:10116000E0DFCE0186960E949400CE0186960E9412
:101170009500CE0185961AD8CE01859618D8CE0155
:101180004596AADA60E0CE01459686DBBEDBCEDB73
:101190000F2EF6EBEF2EF2E0FF2EF02D8E010F5FFB
:1011A0001F4F60E0CE01459698DA6BDE87E893E149
:1011B0000197F1F700C00000888D8F938F898F937E
:1011C0008E898F938D898F93FF92EF921F930F9348
:1011D00020D0C8011CDF80E490E08ADE8C8D8F93E4
:1011E0008B8D8F938A8D8F93898D8F93FF92EF9242
:1011F0001F930F930ED0C8010ADF87EA91E601978B
:10120000F1F700C000000FB6F894DEBF0FBECDBFEF
:10121000C8CF0F931F93CF93DF93CDB7DEB72E9731
:101220000FB6F894DEBF0FBECDBF0E891F8986E0D2
:101230008C831A8309838FEF9FE79E838D83AE0192
:10124000465E5F4F688D798DCE01019611D02F815A
:101250003885F801E20FF31F10822E960FB6F8942E
:10126000DEBF0FBECDBFDF91CF911F910F910895CB
:101270002F923F924F925F926F927F928F929F92A6
:10128000AF92BF92CF92DF92EF92FF920F931F9394
:10129000CF93DF93CDB7DEB72C970FB6F894DEBFB0
:1012A0000FBECDBF7C016B018A01FC011782168243
:1012B000838181FFB0C1CE0101964C01F70193817A
:1012C000F60193FD859193FF81916F01882309F4C5
:1012D0009EC1853239F493FD859193FF81916F0111
:1012E000853221F4B70190E0C7D1E8CF512C312CE1
:1012F00020E02032A0F48B3269F030F4803259F0D3
:10130000833269F420612CC08D3239F0803339F496
:10131000216026C02260246023C0286021C027FDF0
:1013200027C030ED380F3A3078F426FF06C0FAE0D7
:101330005F9E300D1124532E13C08AE0389E300D6D
:101340001124332E20620CC08E3221F426FD5FC1A1
:10135000206406C08C3611F4206802C0883641F43F
:10136000F60193FD859193FF81916F018111C1CFAA
:10137000982F9F7D9554933028F40C5F1F4FFFE307
:10138000F9830DC0833631F0833771F0833509F06E
:1013900057C021C0F801808189830E5F1F4F44240C
:1013A0004394512C540114C03801F2E06F0E711CAB
:1013B000F801A080B18026FF03C0652D70E002C057
:1013C0006FEF7FEFC5012C874CD12C0183012C8559
:1013D0002F77222E16C03801F2E06F0E711CF80133
:1013E000A080B18026FF03C0652D70E002C06FEFC2
:1013F0007FEFC5012C872AD12C012C852068222E55
:10140000830123FC19C0832D90E048165906A0F4EF
:10141000B70180E290E030D13A94F5CFF50127FC96
:10142000859127FE81915F01B70190E025D13110B0
:101430003A94F1E04F1A51084114510479F7DEC093
:10144000843611F0893631F5F80127FF07C0608135
:101450007181828193810C5F1F4F08C0608171810F
:10146000072E000C880B990B0E5F1F4F2F76722EE4
:1014700097FF09C090958095709561957F4F8F4F2C
:101480009F4F2068722E2AE030E0A4012DD1A82EB3
:10149000A81843C0853729F42F7EB22E2AE030E009
:1014A00025C0F22FF97FBF2E8F36C1F018F4883592
:1014B00079F0ADC0803719F0883721F0A8C02F2F00
:1014C0002061B22EB4FE0DC08B2D8460B82E09C0F1
:1014D00024FF0AC09F2F9660B92E06C028E030E096
:1014E00005C020E130E002C020E132E0F801B7FEA3
:1014F00007C060817181828193810C5F1F4F06C09C
:101500006081718180E090E00E5F1F4FA401ECD0FC
:10151000A82EA818FB2DFF777F2E76FE0BC0372D47
:101520003E7FA51450F474FE0AC072FC08C0372D2B
:101530003E7E05C0BA2C372D03C0BA2C01C0B52C95
:1015400034FF0DC0FE01EA0DF11D8081803311F4DE
:10155000397E09C032FF06C0B394B39404C0832F10
:10156000867809F0B39433FD12C030FF06C05A2CC0
:10157000B31418F4530C5B18B32CB31460F4B70114
:1015800080E290E03C8778D0B3943C85F6CFB314EA
:1015900010F43B1801C0312C34FF11C0B70180E3B7
:1015A00090E03C8769D03C8532FF16C031FD03C016
:1015B00088E790E002C088E590E0B7010CC0832F77
:1015C000867851F031FF02C08BE201C080E237FD26
:1015D0008DE2B70190E050D0A51430F4B70180E35C
:1015E00090E04AD05A94F8CFAA94F401EA0DF11D84
:1015F0008081B70190E040D0A110F6CF332009F4EC
:101600005DCEB70180E290E037D03A94F7CFF70192
:101610008681978102C08FEF9FEF2C960FB6F894CA
:10162000DEBF0FBECDBFDF91CF911F910F91FF9015
:10163000EF90DF90CF90BF90AF909F908F907F9072
:101640006F905F904F903F902F900895FC01059010
:10165000615070400110D8F7809590958E0F9F1FB4
:101660000895FC016150704001900110D8F78095F9
:1016700090958E0F9F1F08950F931F93CF93DF9325
:10168000FB01238121FD03C08FEF9FEF28C022FFC4
:1016900016C046815781248135814217530744F48F
:1016A000A081B1819D012F5F3F4F318320838C93B7
:1016B000268137812F5F3F4F3783268310C0EB0190
:1016C000092F182F0084F185E02D1995892BE1F65B
:1016D0008E819F8101969F838E83812F902FDF9132
:1016E000CF911F910F910895FA01AA27283051F147
:1016F000203181F1E8946F936E7F6E5F7F4F8F4F43
:101700009F4FAF4FB1E03ED0B4E03CD0670F781FA1
:10171000891F9A1FA11D680F791F8A1F911DA11D86
:101720006A0F711D811D911DA11D20D009F46894BF
:101730003F912AE0269F11243019305D3193DEF667
:10174000CF010895462F4770405D4193B3E00FD01D
:10175000C9F7F6CF462F4F70405D4A3318F0495D08
:1017600031FD4052419302D0A9F7EACFB4E0A695EB
:101770009795879577956795BA95C9F7009761050D
:10178000710508959B01AC010A2E06945795479563
:1017900037952795BA95C9F7620F731F841F951F58
:0817A000A01D0895F894FFCF8D
:1017A800493243204572726F720053616C7665202E
:1017B8006E6F7420726573706F6E64696E67005324
:1017C8007461727420493243206661696C00496E05
:1017D80076616C6964207068797320616464004E76
:1017E8006F20446174612041636B2066726F6D20C5
:1017F800536C61766500536C617665206E6F74205A
:10180800726573706F6E64696E67005273206572DB
:10181800726F72004D525F534C415F41434B200041
:1018280054575F4D525F444154415F4E41434B20F2
:10183800004572726F722072656164696E67205329
:10184800656E736F7200000001000200030004005F
:10185800050006000700257520202020257520207A
:04186800202020001C
:00000001FF
