S012000044726F6E655F56302E302E73726563D7
S113000079C0000097C0000095C0000093C00000B4
S113001091C000008FC000008DC000008BC00000A4
S113002089C000004EC100006EC1000083C0000002
S113003081C000007FC000007DC000007BC00000C4
S113004079C0000077C0000075C0000073C00000D4
S113005071C000006FC000006DC000006BC00000E4
S113006069C0000067C0000065C0000063C00000F4
S113007061C000005FC000005DC000005BC0000004
S113008059C0000057C0000055C000002EC3000036
S113009051C000004FC000004DC000004BC0000024
S11300A049C0000047C0000045C0000043C0000034
S11300B041C000003FC000003DC000003BC0000044
S11300C039C0000037C0000035C0000033C0000054
S11300D031C000002FC000002DC000002BC0000064
S11300E029C000008C069D06AE06BF06D006E106B8
S11300F0F206030711241FBECFEFD1E2DEBFCDBF4E
S113010000E00CBF12E0A0E0B2E0E2E7F6E100E0BC
S11301100BBF02C007900D92A432B107D9F722E0B9
S1130120A4E2B2E001C01D92A734B207E1F7DBD428
S11301300C94370B65CFFC01718360830895E0EA6A
S1130140F0E08081826A8083E0E2F1E08081826A6B
S11301508083E1EAF0E0808181618083E1E2F1E083
S11301608081816180838FEF9FEF9093A7008093BC
S1130170A60090932701809326011092A900109263
S1130180A8001092AB001092AA00109229011092BC
S1130190280110922B0110922A01EAE0F1E08081FB
S11301A088618083E1E0F1E080818861808310923E
S11301B0A5001092A4001092250110922401089524
S11301C0FC01808191818230910599F01CF40197A2
S11301D039F02AC083309105A9F00497E1F024C0D6
S11301E0660F771F660F771F7093A9006093A800AE
S11301F00895660F771F660F771F7093AB006093A7
S1130200AA000895660F771F660F771F7093290160
S1130210609328010895660F771F660F771F709308
S11302202B0160932A0108951092A9001092A8004E
S11302301092AB001092AA0010922901109228018A
S113024010922B0110922A010895E8E6F0E08081D3
S113025083608083EBE6F0E0808180618083ECE65C
S1130260F0E080818867808378940895109240023A
S113027010923F0210923E0210923D0210923C02F4
S113028010923B0210923A021092390210923802F4
S113029010923702109236021092350210923402F4
S11302A0109233021092320210923102E1E9F0E02E
S11302B0808182608083E1E7F0E0808181608083D7
S11302C008951F920F920FB60F9211242F938F93BC
S11302D09F931C9B04C081E08093420203C081E091
S11302E0809341022FEF89EF90E0215080409040AD
S11302F0E1F700C000009F918F912F910F900FBEE6
S11303000F901F9018951F920F920FB60F92112401
S11303102F933F934F936F937F938F939F938091EA
S1130320030185FF6BC1809140028111BFC16BC184
S113033081E08093270202C01092270280919400EA
S11303402091950090E0922B9093300280932F029D
S11303503FC080914002811160C13AC08091270260
S1130360811116C004C080912702882389F08091EE
S113037094002091950090E0922B20912F023091CF
S11303803002821B930B909338028093370210C083
S1130390809194002091950090E0922B20912F025F
S11303A030913002821B930B909338028093370272
S11303B010923C0280913B0281110AC080913A0262
S11303C0811106C080913902811102C01092280265
S11303D08091030184FF32C180913F0281116BC17E
S11303E023C181E08093260202C0109226028091EC
S11303F094002091950090E0922B90932E0280938C
S11304002D023FC080913F0281111DC13AC08091ED
S11304102602811116C004C080912602882389F027
S1130420809194002091950090E0922B20912D02D0
S113043030912E02821B930B9093360280933502E7
S113044010C0809194002091950090E0922B20910F
S11304502D0230912E02821B930B909338028093CD
S1130460370210923B0280913C0281110AC08091B4
S11304703A02811106C080913902811102C01092A2
S113048028028091030183FFEFC080913E02811115
S113049017C1E0C081E08093250202C010922502BA
S11304A0809194002091950090E0922B90932C02DF
S11304B080932B0244C080913E028111DAC03FC078
S11304C080912502811116C004C0809125028823E1
S11304D089F0809194002091950090E0922B2091D6
S11304E02B0230912C02821B930B90933402809345
S11304F0330215C0909194004091950060912B02B5
S113050070912C0222E030E0261B370B892F90E0FB
S1130510942B820F931F9093340280933302109292
S11305203A0280913C0281110AC080913B02811100
S113053006C080913902811102C010922802809174
S1130540030182FFA7C080913D028111BEC098C003
S113055081E08093240202C01092240280919400CE
S11305602091950090E0922B90932A028093290287
S1130570B0C080913D02811192C0ABC08091240231
S1130580811116C004C080912402882389F08091CF
S113059094002091950090E0922B209129023091B3
S11305A02A02821B930B909332028093310215C06E
S11305B090919400409195006091290270912A02D3
S11305C023E030E0261B370B892F90E0942B820F19
S11305D0931F9093320280933102109239028091DA
S11305E03C02811176C080913B02811172C08091DE
S11305F03A0281116EC0109228026BC080910301EF
S113060085FFA7CEE5CE81E08093400280933C0233
S11306108091280281118CCE8FCE1092400280915D
S113062028028111A0CE9ACE81E080933F0280936C
S11306303B02809128028111D4CED7CE8091030150
S113064084FFE0CE1ECF10923F02809128028111D8
S1130650E3CEDDCE81E080933E0280933A02809126
S11306602802811117CF1ACF8091030183FF23CF72
S113067066CF10923E0280912802811126CF20CFAE
S113068081E080933D028093390280912802811198
S11306905FCF62CF8091030182FF6BCF1AC01092AB
S11306A03D028091280281116ECF68CF80910301B1
S11306B085FFB3CF8DCE8091030184FFC4CFE1CEFB
S11306C08091030183FFD5CF3ACF8091030182FF4C
S11306D0E6CF9F918F917F916F914F913F912F9191
S11306E00F900FBE0F901F9018951F920F920FB688
S11306F00F9211248F9381E080932802C0988F91E8
S11307000F900FBE0F901F901895EBE0F1E08081E1
S1130710806880831092840010928500A4E8B0E081
S1130720E5E8F0E08C91208190E0922B84369105ED
S1130730CCF31092840010928500EBE0F1E080810C
S11307408F77808308950F931F93CF93DF93E6E011
S1130750F2E040E050E0C1E0D0E0082F10E0A8E073
S1130760B1E09E01042E02C0220F331F0A94E2F767
S113077020233123042E02C0359527950A94E2F7ED
S11307802130310559F42C91CE01008002C0880F2C
S1130790991F0A94E2F7822B8C930CC02C91BE0112
S11307A0008002C0660F771F0A94E2F7962F909597
S11307B092239C934F5F5F4F32964830510589F6E0
S11307C0A4DFDF91CF911F910F910895EBE0F1E049
S11307D080818F7D808380818F7B8083E8E0F1E05E
S11307E080818F77808380818F7B808380818F7DE0
S11307F0808380818F7E80838081877F80838081D6
S11308008B7F808380818D7F8083808181608083E2
S11308107CDF1092840010928500A4E8B0E0E5E843
S1130820F0E08C91208190E0922B883B9B40CCF3AC
S1130830109284001092850008950F931F93CF9314
S1130840DF938C01EBE0F1E080818F7D80838081F8
S11308508F7B8083E8E0F1E0808180688083E6E03C
S1130860F2E040E050E0C1E0D0E0A8E0B1E09E0159
S1130870042E02C0220F331F0A94E2F720233123EF
S1130880042E02C0359527950A94E2F721303105EC
S113089059F42C91CE01008002C0880F991F0A944C
S11308A0E2F7822B8C930CC02C91BE01008002C015
S11308B0660F771F0A94E2F7962F909592239C93E4
S11308C04F5F5F4F32964730510589F61EDFDF9147
S11308D0CF911F910F910895EBE0F1E080818F7D1E
S11308E0808380818F7B8083E8E0F1E080818F7753
S11308F0808380818F7B808380818F7D80838081D2
S11309008F7E80838081877F808380818B7F8083BB
S113091080818260808380818E7F8083F6DE109266
S1130920840010928500A4E8B0E0E5E8F0E08C9142
S1130930208190E0922B883B9B40CCF31092840062
S1130940109285000895EBE0F1E08081806280835D
S113095080818F7B808308950F931F93CF93DF93C0
S11309608C01F1DFF8018081811109C00EC0EBDE3A
S1130970C017D10751F089918111F9CF06C0E3DE88
S1130980E8012196005F1F4FF6CFDF91CF911F91B1
S11309900F910895EBE0F1E080818F7D8083808169
S11309A08F7B8083E8E0F1E080818F778083808192
S11309B08F7B808380818F7D808380818F7E808305
S11309C080818860808380818460808380818D7F42
S11309D0808380818E7F808398CE0895EBE0F1E060
S11309E080818F7D808380818F7B8083E8E0F1E04C
S11309F080818F77808380818F7B808380818062F8
S1130A00808380818061808380818860808380810D
S1130A108B7F808380818D7F808380818E7F8083A4
S1130A2074CE0895EBE0F1E080818F7D8083808136
S1130A308F7B8083E8E0F1E080818F778083808101
S1130A408F7B808380818F7D808380818F7E808374
S1130A508081877F808380818460808380818260BD
S1130A60808380818E7F808350CE0895E1E8F0E01A
S1130A70808182608083E7E0F1E080818FEF808372
S1130A80EAE0F1E08081806E8083A0DE83DFA6DF70
S1130A90C9DF22CF08950F931F93CF93D8018C9170
S1130AA0922F90959823282BCFB7F8944115510590
S1130AB0A9F0FB01640F751F819138E02C9300C0ED
S1130AC087FF9C93880F00C000C000C008F49C936B
S1130AD000C03A9599F7E617F70771F7CFBFCF91A2
S1130AE01F910F910895CF93DF93CDB7DEB7E697AB
S1130AF00FB6F894DEBF0FBECDBFB8DF62E070E082
S1130B00CE01C59618DB61E070E0CE01C39613DB1D
S1130B1064E070E0CE01C1960EDB63E070E0CE01CC
S1130B208F9609DB0CDB40E061E070E0CE01829639
S1130B30A3D041E061E070E0CE0145969DD085DB15
S1130B4095DBC12CD12C0F2EF6E1EF2EF2E0FF2E17
S1130B50F02D8E010F5F1F4F6091330270913402AC
S1130B60CE01C5962DDB6091330270913402CE0123
S1130B70C39626DB6091330270913402CE01C19694
S1130B801FDB6091330270913402CE018F9618DB23
S1130B901DDE809136028F93809135028F93809170
S1130BA038028F93809137028F93FF92EF921F93B5
S1130BB00F9394D2C801D0DE80E490E03EDE8091B1
S1130BC032028F93809131028F93809134028F93FC
S1130BD0809133028F93FF92EF921F930F937ED2F3
S1130BE0C801BADE2FEF81EE94E02150804090409E
S1130BF0E1F700C000002FEFC21AD20A0FB6F89432
S1130C00DEBF0FBECDBF95E0C916D104B9F420E014
S1130C1030E04FEF60E070E0CE01829643D02FEFDA
S1130C2030E040E060E070E0CE0145963BD0CE017C
S1130C308296FAD0CE014596F7D08ECF2AE0C2161E
S1130C40D10409F089CF20E030E040E060E070E0BA
S1130C50CE01829627D020E030E040E060E070E0F2
S1130C60CE0145961FD0CE018296DED0CE014596A8
S1130C70DBD0C12CD12C70CFCF93DF93EC017983DF
S1130C8068834C87CB01880F991F860F971FF9D073
S1130C909B838A831D8281E08C8382E08E83DF9133
S1130CA0CF910895CF93DF93EC01888199816817E0
S1130CB07907F8F4FB01EE0FFF1F6E0F7F1F8C8185
S1130CC0AA81BB81A60FB71FA80FB11D3C938D81CC
S1130CD0AA81BB81A60FB71FA80FB11D2C938E81CB
S1130CE0EA81FB81E60FF71FE80FF11D408380E0E6
S1130CF001C081E0DF91CF910895DC011C964C91F5
S1130D001C9750E04830510508F08DC0FA0188273F
S1130D10EE58FF4F8F4FADC080E41B968C931B970A
S1130D2085E290E018969C938E93179784E290E066
S1130D301A969C938E931997089580E81B968C932A
S1130D401B9785E290E018969C938E93179784E204
S1130D5090E01A969C938E931997089580E81B96B9
S1130D608C931B9785E091E018969C938E9317972C
S1130D7084E091E01A969C938E931997089580E4E9
S1130D801B968C931B9785E091E018969C938E9309
S1130D90179784E091E01A969C938E93199708957F
S1130DA080E81B968C931B9781E390E018969C93A4
S1130DB08E93179780E390E01A969C938E931997DD
S1130DC0089580E41B968C931B9781E390E018961A
S1130DD09C938E93179780E390E01A969C938E933E
S1130DE01997089581E01B968C931B9788E091E0F6
S1130DF018969C938E93179787E091E01A969C938C
S1130E008E931997089582E01B968C931B9788E024
S1130E1091E018969C938E93179787E091E01A9629
S1130E209C938E9319970895EF92FF920F931F93BB
S1130E30CF93DF93EC0161DFE985FA8590818B859F
S1130E40892B8083E984FA840F811885488159812C
S1130E50CA01880F991F480F591F6A817B812B850E
S1130E60CE0119DEDF91CF911F910F91FF90EF908A
S1130E700895EE0FFF1F881F8BBF0790F691E02D9A
S1130E801994CF93DF938230910510F482E090E0BF
S1130E90E0914502F091460220E030E0C0E0D0E06D
S1130EA0309711F14081518148175907C0F0481714
S1130EB0590761F482819381209719F09B838A8377
S1130EC02BC0909346028093450226C0211531051C
S1130ED019F04217530718F49A01BE01DF01EF011C
S1130EE00280F381E02DDCCF2115310509F1281BA7
S1130EF0390B2430310590F412968D919C911397FF
S1130F006115710521F0FB019383828304C09093E2
S1130F10460280934502FD01329644C0FD01E20F72
S1130F20F31F81939193225031092D933C933AC03E
S1130F302091430230914402232B41F42091020278
S1130F403091030230934402209343022091000223
S1130F50309101022115310541F42DB73EB740917E
S1130F60040250910502241B350BE0914302F091D9
S1130F704402E217F307A0F42E1B3F0B281739078E
S1130F8078F0AC014E5F5F4F2417350748F04E0FE1
S1130F905F1F50934402409343028193919302C094
S1130FA0E0E0F0E0CF01DF91CF9108950F931F931C
S1130FB0CF93DF93009709F48CC0FC01329713821E
S1130FC0128200914502109146020115110581F427
S1130FD020813181820F931F20914302309144027A
S1130FE02817390779F5F0934402E093430271C05E
S1130FF0D80140E050E0AE17BF0750F412962D918F
S11310003C911397AD012115310509F1D901F3CFB5
S11310109D01DA013383228360817181860F971FDA
S11310208217930769F4EC0128813981260F371F51
S11310302E5F3F4F318320838A819B8193838283F8
S1131040452B29F4F0934602E093450242C01396DF
S1131050FC93EE931297ED01499159919E01240F4F
S1131060351FE217F30771F480819181840F951F76
S1131070029611969C938E938281938113969C93EE
S11310808E931297E0E0F0E0D80112968D919C9136
S11310901397009719F0F8018C01F6CF8D919C916C
S11310A098012E5F3F4F820F931F2091430230918E
S11310B044022817390769F4309729F4109246023C
S11310C01092450202C013821282109344020093CC
S11310D04302DF91CF911F910F9108950F931F93B6
S11310E0CF93DF93CDB7DEB72E970FB6F894DEBF5C
S11310F00FBECDBF0E891F8986E08C831A830983B6
S11311008FEF9FE79E838D83AE01465E5F4F688DB0
S1131110798DCE01019611D02F813885F801E20F27
S1131120F31F10822E960FB6F894DEBF0FBECDBF0C
S1131130DF91CF911F910F9108952F923F924F927B
S11311405F926F927F928F929F92AF92BF92CF9253
S1131150DF92EF92FF920F931F93CF93DF93CDB75C
S1131160DEB72C970FB6F894DEBF0FBECDBF7C015F
S11311706B018A01FC0117821682838181FFB0C151
S1131180CE0101964C01F7019381F60193FD8591FF
S113119093FF81916F01882309F49EC1853239F44C
S11311A093FD859193FF81916F01853221F4B701FD
S11311B090E0C7D1E8CF512C312C20E02032A0F4AC
S11311C08B3269F030F4803259F0833269F4206153
S11311D02CC08D3239F0803339F4216026C022606E
S11311E0246023C0286021C027FD27C030ED380FBC
S11311F03A3078F426FF06C0FAE05F9E300D1124E1
S1131200532E13C08AE0389E300D1124332E2062F1
S11312100CC08E3221F426FD5FC1206406C08C36DA
S113122011F4206802C0883641F4F60193FD8591DB
S113123093FF81916F018111C1CF982F9F7D9554A8
S1131240933028F40C5F1F4FFFE3F9830DC08336FE
S113125031F0833771F0833509F057C021C0F801AC
S1131260808189830E5F1F4F44244394512C540181
S113127014C03801F2E06F0E711CF801A080B18037
S113128026FF03C0652D70E002C06FEF7FEFC5013C
S11312902C874CD12C0183012C852F77222E16C04C
S11312A03801F2E06F0E711CF801A080B18026FFB6
S11312B003C0652D70E002C06FEF7FEFC5012C877E
S11312C02AD12C012C852068222E830123FC19C0ED
S11312D0832D90E048165906A0F4B70180E290E00F
S11312E030D13A94F5CFF50127FC859127FE819101
S11312F05F01B70190E025D131103A94F1E04F1A23
S113130051084114510479F7DEC0843611F089364E
S113131031F5F80127FF07C06081718182819381D3
S11313200C5F1F4F08C060817181072E000C880B71
S1131330990B0E5F1F4F2F76722E97FF09C0909561
S11313408095709561957F4F8F4F9F4F2068722EC7
S11313502AE030E0A4012DD1A82EA81843C0853777
S113136029F42F7EB22E2AE030E025C0F22FF97F37
S1131370BF2E8F36C1F018F4883579F0ADC08037B0
S113138019F0883721F0A8C02F2F2061B22EB4FEA7
S11313900DC08B2D8460B82E09C024FF0AC09F2F76
S11313A09660B92E06C028E030E005C020E130E0A8
S11313B002C020E132E0F801B7FE07C0608171810C
S11313C0828193810C5F1F4F06C06081718180E030
S11313D090E00E5F1F4FA401ECD0A82EA818FB2D9F
S11313E0FF777F2E76FE0BC0372D3E7FA51450F479
S11313F074FE0AC072FC08C0372D3E7E05C0BA2CAC
S1131400372D03C0BA2C01C0B52C34FF0DC0FE012A
S1131410EA0DF11D8081803311F4397E09C032FF59
S113142006C0B394B39404C0832F867809F0B394B0
S113143033FD12C030FF06C05A2CB31418F4530CF9
S11314405B18B32CB31460F4B70180E290E03C87DE
S113145078D0B3943C85F6CFB31410F43B1801C094
S1131460312C34FF11C0B70180E390E03C8769D090
S11314703C8532FF16C031FD03C088E790E002C00E
S113148088E590E0B7010CC0832F867851F031FFD6
S113149002C08BE201C080E237FD8DE2B70190E02B
S11314A050D0A51430F4B70180E390E04AD05A94A8
S11314B0F8CFAA94F401EA0DF11D8081B70190E000
S11314C040D0A110F6CF332009F45DCEB70180E2FD
S11314D090E037D03A94F7CFF7018681978102C024
S11314E08FEF9FEF2C960FB6F894DEBF0FBECDBFE3
S11314F0DF91CF911F910F91FF90EF90DF90CF90EC
S1131500BF90AF909F908F907F906F905F904F901F
S11315103F902F900895FC01059061507040011098
S1131520D8F7809590958E0F9F1F0895FC01615008
S1131530704001900110D8F7809590958E0F9F1FF1
S113154008950F931F93CF93DF93FB01238121FD14
S113155003C08FEF9FEF28C022FF16C0468157813A
S1131560248135814217530744F4A081B1819D0140
S11315702F5F3F4F318320838C93268137812F5FE8
S11315803F4F3783268310C0EB01092F182F0084A7
S1131590F185E02D1995892BE1F68E819F810196C5
S11315A09F838E83812F902FDF91CF911F910F9175
S11315B00895FA01AA27283051F1203181F1E894E5
S11315C06F936E7F6E5F7F4F8F4F9F4FAF4FB1E032
S11315D03ED0B4E03CD0670F781F891F9A1FA11D2D
S11315E0680F791F8A1F911DA11D6A0F711D811D2E
S11315F0911DA11D20D009F468943F912AE0269FF3
S113160011243019305D3193DEF6CF010895462F51
S11316104770405D4193B3E00FD0C9F7F6CF462F32
S11316204F70405D4A3318F0495D31FD405241939B
S113163002D0A9F7EACFB4E0A69597958795779558
S11316406795BA95C9F700976105710508959B01DF
S1131650AC010A2E06945795479537952795BA9568
S1131660C9F7620F731F841F951FA01D0895F89476
S1051670FFCFA6
S113167200004702200000000100020003000400F1
S1131682050006000700257520202020257520204E
S107169220202000F0
S9030000FC
