:1000000071C000008EC000008CC000008AC00000DB
:1000100088C0000086C0000084C0000082C00000CC
:1000200080C000000AC1000025C100007AC00000A5
:1000300078C0000076C0000074C0000072C00000EC
:1000400070C000006EC000006CC000006AC00000FC
:1000500068C0000066C0000064C0000062C000000C
:1000600060C000005EC000005CC000005AC000001C
:1000700058C0000056C0000054C0000052C000002C
:1000800050C000004EC000004CC000001CC1000069
:1000900048C0000046C0000044C0000042C000004C
:1000A00040C000003EC000003CC000003AC000005C
:1000B00038C0000036C0000034C0000032C000006C
:1000C00030C000002EC000002CC000002AC000007C
:1000D00028C0000026C0000024C0000022C000008C
:1000E00020C0000011241FBECFEFD1E2DEBFCDBF84
:1000F00000E00CBF12E0A0E0B2E0E2E1FCE000E0D2
:100100000BBF02C007900D92A835B107D9F722E0C6
:10011000A8E5B2E001C01D92AB36B207E1F73DD2CF
:1001200076C56ECF0895E0EAF0E08081826A808330
:10013000E0E2F1E08081826A8083E1EAF0E08081A0
:1001400081618083E1E2F1E08081816180831092AE
:10015000A2001092220188E08093A7001092A600CE
:10016000809327011092260182E08093A9001092CB
:10017000A8008093AB001092AA00809329011092EE
:10018000280180932B0110922A01EAE0F1E080819E
:1001900088618083E1E0F1E0808188618083109252
:1001A000A5001092A40010922501109224012FE3C3
:1001B0008DE093E0215080409040E1F700C00000C6
:1001C0000895E8E6F0E0808183608083EBE6F0E06C
:1001D000808180618083ECE6F0E08081806F8083A5
:1001E0007894089510926802109267021092660245
:1001F00010926502109264021092630210926202E1
:10020000109261021092600210925F0210925E02E0
:1002100010925D0210925C0210925B0210925A02E0
:1002200010925902E1E9F0E0808181608083E1E78A
:10023000F0E080818160808308951F920F920FB655
:100240000F9211248F939F931C9B04C081E0809395
:100250006A0203C081E08093690283EC99E0019710
:10026000F1F700C000009F918F910F900FBE0F908B
:100270001F9018951F920F920FB60F9211240BB674
:100280000F922F933F934F935F936F937F938F932F
:100290009F93AF93BF93EF93FF9380E092E016D1CB
:1002A000FF91EF91BF91AF919F918F917F916F914E
:1002B0005F914F913F912F910F900BBE0F900FBE0A
:1002C0000F901F9018951F920F920FB60F92112446
:1002D0008F9381E080935802C0988F910F900FBE4A
:1002E0000F901F901895EBE0F1E08081806880838B
:1002F0001092840010928500A4E8B0E0E5E8F0E0F8
:100300008C91208190E0922B80399140CCF3109217
:10031000840010928500EBE0F1E080818F7780838C
:100320000895CF93DF93E7E0F2E040E050E0A1E0F2
:10033000B0E0C82FD0E09D01042E02C0220F331F71
:100340000A94E2F72C233D23042E02C0359527950D
:100350000A94E2F72130310559F42BB1CD01008028
:1003600002C0880F991F0A94E2F7822B8BB90CC048
:100370002BB1BD01008002C0660F771F0A94E2F71F
:10038000962F909592239BB94F5F5F4F32964830DE
:10039000510589F6A8DFDF91CF910895EBE0F1E0F8
:1003A00080818F7D808380818F7B80835F985E9842
:1003B0005D985C985B985A985998589A94DF109277
:1003C000840010928500A4E8B0E0E5E8F0E08C91AC
:1003D000208190E0922B803D9740CCF310928400D6
:1003E000109285000895CF93DF93EC01EBE0F1E0EC
:1003F00080818F7D808380818F7B80835F9AE7E01F
:10040000F2E040E050E0A1E0B0E09D01042E02C027
:10041000220F331F0A94E2F72C233D23042E02C03F
:10042000359527950A94E2F72130310559F42BB11F
:10043000CD01008002C0880F991F0A94E2F7822B39
:100440008BB90CC02BB1BD01008002C0660F771FB5
:100450000A94E2F7962F909592239BB94F5F5F4FD6
:1004600032964730510589F63EDFDF91CF910895EE
:10047000EBE0F1E080818F7D808380818F7B8083C2
:100480005F985E985D985C985B985A98599A5898CE
:100490002ADF1092840010928500A4E8B0E0E5E81D
:1004A000F0E08C91208190E0922B803D9740CCF33E
:1004B00010928400109285000895EBE0F1E08081B5
:1004C0008062808380818F7B808308950F931F9348
:1004D000CF93DF938C01F1DFF8018081811109C096
:1004E0000EC01FDFC017D10751F089918111F9CFDC
:1004F00006C017DFE8012196005F1F4FF6CFDF919E
:10050000CF911F910F910895EBE0F1E080818F7DF5
:10051000808380818F7B80835F985E985D985C98F4
:100520005B9A5A9A59985898DECE0895EBE0F1E01C
:1005300080818F7D808380818F7B80835F985E98B0
:100540005D9A5C9A5B9A5A9859985898CCCE0895BF
:10055000EBE0F1E080818F7D808380818F7B8083E1
:100560005F985E985D985C985B985A9A599A5898EB
:10057000BACE0895E1E8F0E08081816080838AB19D
:100580008FEF8AB9EAE0F1E08081806E808306DF38
:10059000BBDFCCDFDDDF6CCF0895CF93DF93CDB72A
:1005A000DEB727970FB6F894DEBF0FBECDBF86E14A
:1005B00090E09093600280935F02CE010796B2DDD7
:1005C000CE010796B0DDFDDD0DDED4DF87E192E0E0
:1005D0007DDF80E490E007DF85E292E077DF0F2E99
:1005E000F9EAEF2EF12CF02D9924939408EA10E00B
:1005F0006894662462F80F2EF9EB7F2EF02D0F2EF3
:10060000F3E5AF2EF2E0BF2EF02DCE0101966C0186
:100610000F2EF3E08F2EF02D90916902992391F027
:10062000BDDE26DF84E392E051DF80E490E0DBDE94
:1006300084E492E04BDFF7018082F801108210928F
:100640006902EACF90916A02992399F0A7DE6F922E
:100650007F92BF92AF92DF92CF9210D0C60136DF69
:1006600010926A020F900F900F900F900F900F90C2
:10067000D3CFF7019082F8011082CECF0F931F9352
:10068000CF93DF93CDB7DEB72E970FB6F894DEBFCA
:100690000FBECDBF0E891F8986E08C831A83098324
:1006A0008FEF9FE79E838D83AE01465E5F4F688D1F
:1006B000798DCE01019611D02F813885F801E20F96
:1006C000F31F10822E960FB6F894DEBF0FBECDBF7B
:1006D000DF91CF911F910F9108952F923F924F92EA
:1006E0005F926F927F928F929F92AF92BF92CF92C2
:1006F000DF92EF92FF920F931F93CF93DF93CDB7CB
:10070000DEB72C970FB6F894DEBF0FBECDBF7C01CD
:100710006B018A01FC0117821682838181FFB0C1BF
:10072000CE0101964C01F7019381F60193FD85916D
:1007300093FF81916F01882309F49EC1853239F4BA
:1007400093FD859193FF81916F01853221F4B7016B
:1007500090E0C7D1E8CF512C312C20E02032A0F41A
:100760008B3269F030F4803259F0833269F42061C1
:100770002CC08D3239F0803339F4216026C02260DC
:10078000246023C0286021C027FD27C030ED380F2A
:100790003A3078F426FF06C0FAE05F9E300D11244F
:1007A000532E13C08AE0389E300D1124332E206260
:1007B0000CC08E3221F426FD5FC1206406C08C3649
:1007C00011F4206802C0883641F4F60193FD85914A
:1007D00093FF81916F018111C1CF982F9F7D955417
:1007E000933028F40C5F1F4FFFE3F9830DC083366D
:1007F00031F0833771F0833509F057C021C0F8011B
:10080000808189830E5F1F4F44244394512C5401EF
:1008100014C03801F2E06F0E711CF801A080B180A5
:1008200026FF03C0652D70E002C06FEF7FEFC501AA
:100830002C874CD12C0183012C852F77222E16C0BA
:100840003801F2E06F0E711CF801A080B18026FF24
:1008500003C0652D70E002C06FEF7FEFC5012C87EC
:100860002AD12C012C852068222E830123FC19C05B
:10087000832D90E048165906A0F4B70180E290E07D
:1008800030D13A94F5CFF50127FC859127FE81916F
:100890005F01B70190E025D131103A94F1E04F1A91
:1008A00051084114510479F7DEC0843611F08936BD
:1008B00031F5F80127FF07C0608171818281938142
:1008C0000C5F1F4F08C060817181072E000C880BE0
:1008D000990B0E5F1F4F2F76722E97FF09C09095D0
:1008E0008095709561957F4F8F4F9F4F2068722E36
:1008F0002AE030E0A4012DD1A82EA81843C08537E6
:1009000029F42F7EB22E2AE030E025C0F22FF97FA5
:10091000BF2E8F36C1F018F4883579F0ADC080371E
:1009200019F0883721F0A8C02F2F2061B22EB4FE15
:100930000DC08B2D8460B82E09C024FF0AC09F2FE4
:100940009660B92E06C028E030E005C020E130E016
:1009500002C020E132E0F801B7FE07C0608171817A
:10096000828193810C5F1F4F06C06081718180E09E
:1009700090E00E5F1F4FA401ECD0A82EA818FB2D0D
:10098000FF777F2E76FE0BC0372D3E7FA51450F4E7
:1009900074FE0AC072FC08C0372D3E7E05C0BA2C1A
:1009A000372D03C0BA2C01C0B52C34FF0DC0FE0199
:1009B000EA0DF11D8081803311F4397E09C032FFC8
:1009C00006C0B394B39404C0832F867809F0B3941F
:1009D00033FD12C030FF06C05A2CB31418F4530C68
:1009E0005B18B32CB31460F4B70180E290E03C874D
:1009F00078D0B3943C85F6CFB31410F43B1801C003
:100A0000312C34FF11C0B70180E390E03C8769D0FE
:100A10003C8532FF16C031FD03C088E790E002C07C
:100A200088E590E0B7010CC0832F867851F031FF44
:100A300002C08BE201C080E237FD8DE2B70190E099
:100A400050D0A51430F4B70180E390E04AD05A9416
:100A5000F8CFAA94F401EA0DF11D8081B70190E06E
:100A600040D0A110F6CF332009F45DCEB70180E26B
:100A700090E037D03A94F7CFF7018681978102C092
:100A80008FEF9FEF2C960FB6F894DEBF0FBECDBF51
:100A9000DF91CF911F910F91FF90EF90DF90CF905A
:100AA000BF90AF909F908F907F906F905F904F908E
:100AB0003F902F900895FC01059061507040011007
:100AC000D8F7809590958E0F9F1F0895FC01615077
:100AD000704001900110D8F7809590958E0F9F1F60
:100AE00008950F931F93CF93DF93FB01238121FD83
:100AF00003C08FEF9FEF28C022FF16C046815781A9
:100B0000248135814217530744F4A081B1819D01AE
:100B10002F5F3F4F318320838C93268137812F5F56
:100B20003F4F3783268310C0EB01092F182F008415
:100B3000F185E02D1995892BE1F68E819F81019633
:100B40009F838E83812F902FDF91CF911F910F91E3
:100B50000895FA01AA27283051F1203181F1E89453
:100B60006F936E7F6E5F7F4F8F4F9F4FAF4FB1E0A0
:100B70003ED0B4E03CD0670F781F891F9A1FA11D9B
:100B8000680F791F8A1F911DA11D6A0F711D811D9C
:100B9000911DA11D20D009F468943F912AE0269F61
:100BA00011243019305D3193DEF6CF010895462FC0
:100BB0004770405D4193B3E00FD0C9F7F6CF462FA1
:100BC0004F70405D4A3318F0495D31FD405241930A
:100BD00002D0A9F7EACFB4E0A695979587957795C7
:100BE0006795BA95C9F700976105710508959B014E
:100BF000AC010A2E06945795479537952795BA95D7
:100C0000C9F7620F731F841F951FA01D0895F894E4
:020C1000FFCF14
:100C12005043494E54310000000100020003000419
:100C220000050006000700202053696D6F6E2076D4
:100C320061207365002020636869657220646573B2
:100C42007375730020646F6E27742070757368204B
:100C52007468650020202064616D6E206275747472
:080C62006F6E002568640000BC
:00000001FF
