:1000000071C0000081C000007FC000007DC0000002
:100010007BC0000079C0000077C0000075C0000000
:1000200073C00000CDC000006FC000006DC00000B4
:100030006BC0000069C0000067C0000065C0000020
:1000400063C0000061C000005FC000005DC0000030
:100050005BC0000059C0000057C0000055C0000040
:1000600053C0000051C000004FC000004DC0000050
:100070004BC0000049C0000047C0000045C0000060
:1000800043C0000041C000003FC000003DC0000070
:100090003BC0000039C0000037C0000035C0000080
:1000A00033C0000031C000002FC000002DC0000090
:1000B0002BC0000029C0000027C0000025C00000A0
:1000C00023C0000021C000001FC000001DC00000B0
:1000D0001BC0000019C0000017C0000015C00000C0
:1000E00013C0000011241FBECFEFD1E2DEBFCDBF91
:1000F00000E00CBF22E0A0E0B2E001C01D92A430FD
:10010000B207E1F77AD0BBC07BCF0895E0EAF0E018
:100110008081826A8083E0E2F1E08081826A80836C
:10012000E1EAF0E0808181618083E1E2F1E08081B9
:10013000816180831092A2001092220188E0809356
:10014000A7001092A600809327011092260182E05A
:100150008093A9001092A8008093AB001092AA008F
:10016000809329011092280180932B0110922A017B
:10017000EAE0F1E0808188618083E1E0F1E0808164
:10018000886180831092A5001092A400109225012E
:10019000109224012FE78AE196E0215080409040A0
:1001A000E1F700C000000895E8E6F0E0808181609A
:1001B0008083EBE6F0E0808180618083789408950D
:1001C0001F920F920FB60F9211248F939F931C9B37
:1001D00007C081E090E0909303028093020206C082
:1001E00081E090E090930102809300029F918F91B3
:1001F0000F900FBE0F901F901895CF93DF931F9213
:10020000CDB7DEB7CE01019680DFCE0101967EDF4D
:10021000CBDFA9EAB0E022E0E8EAF0E043E030E832
:100220008091020290910302892B81F02C933083FC
:100230005FE38DE093E0515080409040E1F700C0D3
:1002400000001092030210920202EACF8091000295
:1002500090910102892B81F04C9310825FE38DE035
:1002600093E0515080409040E1F700C000001092B0
:10027000010210920002D4CF2C931082D1CFF894B7
:02028000FFCFAE
:00000001FF
