:1000000071C000008EC000008CC000008AC00000DB
:1000100088C0000086C0000084C0000082C00000CC
:1000200080C0000003C100001EC100007AC00000B3
:1000300078C0000076C0000074C0000072C00000EC
:1000400070C000006EC000006CC000006AC00000FC
:1000500068C0000066C0000064C0000062C000000C
:1000600060C000005EC000005CC000005AC000001C
:1000700058C0000056C0000054C0000052C000002C
:1000800050C000004EC000004CC00000DEC20000A6
:1000900048C0000046C0000044C0000042C000004C
:1000A00040C000003EC000003CC000003AC000005C
:1000B00038C0000036C0000034C0000032C000006C
:1000C00030C000002EC000002CC000002AC000007C
:1000D00028C0000026C0000024C0000022C000008C
:1000E00020C0000011241FBECFEFD1E2DEBFCDBF84
:1000F00000E00CBF12E0A0E0B2E0E2EBF0E100E0D3
:100100000BBF02C007900D92AE31B107D9F722E0C4
:10011000AEE1B2E001C01D92AD33B207E1F76BD49E
:10012000C6C76ECF0895E0EAF0E08081826A8083DE
:10013000E0E2F1E08081826A8083E1EAF0E08081A0
:1001400081618083E1E2F1E08081816180831092AE
:10015000A2001092220180ED97E09093A700809377
:10016000A600909327018093260180EB94E0909362
:10017000A9008093A8009093AB008093AA0090936D
:1001800029018093280190932B0180932A01EAE0B2
:10019000F1E0808188618083E1E0F1E08081886125
:1001A00080831092A5001092A40010922501109255
:1001B00024010895E8E6F0E0808183608083EBE627
:1001C000F0E0808180618083ECE6F0E08081806FE8
:1001D00080837894089510923A0210923902109216
:1001E00038021092370210923602109235021092A5
:1001F00034021092330210923202109231021092A5
:10020000300210922F0210922E0210922D021092A4
:100210002C0210922B02E1E9F0E080818160808362
:10022000E1E7F0E080818160808308951F920F9262
:100230000FB60F9211248F939F931C9B04C081E0F3
:1002400080933C0203C081E080933B0283EC99E001
:100250000197F1F700C000009F918F910F900FBEA2
:100260000F901F9018951F920F920FB60F921124A6
:100270002F933F934F936F937F938F939F9380918F
:10028000030183FF6BC180913A028111BFC16BC131
:1002900081E08093210202C010922102809194009B
:1002A0002091950090E0922B90932A02809329024E
:1002B0003FC080913A02811160C13AC08091210211
:1002C000811116C004C080912102882389F0809199
:1002D00094002091950090E0922B2091290230917A
:1002E0002A02821B930B909332028093310210C03A
:1002F000809194002091950090E0922B209129020A
:1003000030912A02821B930B909332028093310228
:10031000109236028091350281110AC08091340218
:10032000811106C080913302811102C01092220215
:100330008091030184FF32C18091390281116BC128
:1003400023C181E08093200202C01092200280919C
:1003500094002091950090E0922B90932802809336
:1003600027023FC08091390281111DC13AC080919E
:100370002002811116C004C080912002882389F0D8
:10038000809194002091950090E0922B209127027B
:1003900030912802821B930B9093300280932F029E
:1003A00010C0809194002091950090E0922B2091B4
:1003B000270230912802821B930B90933202809384
:1003C0003102109235028091360281110AC080916B
:1003D0003402811106C080913302811102C0109253
:1003E00022028091030185FFEFC0809138028111C4
:1003F00017C1E0C081E080931F0202C010921F026B
:10040000809194002091950090E0922B9093260289
:100410008093250244C0809138028111DAC03FC028
:1004200080911F02811116C004C080911F02882391
:1004300089F0809194002091950090E0922B20917A
:10044000250230912602821B930B90932E028093FB
:100450002D0215C090919400409195006091250265
:100460007091260222E030E0261B370B892F90E0A6
:10047000942B820F931F90932E0280932D02109243
:1004800034028091360281110AC0809135028111B7
:1004900006C080913302811102C010922202809125
:1004A000030186FFA7C0809137028111BEC098C0AA
:1004B00081E080931E0202C010921E02809194007F
:1004C0002091950090E0922B909324028093230238
:1004D000B0C080913702811192C0ABC080911E02E2
:1004E000811116C004C080911E02882389F080917A
:1004F00094002091950090E0922B2091230230915E
:100500002402821B930B90932C0280932B0215C024
:100510009091940040919500609123027091240283
:1005200023E030E0261B370B892F90E0942B820FBD
:10053000931F90932C0280932B0210923302809190
:100540003602811176C080913502811172C080918E
:10055000340281116EC0109222026BC0809103019F
:1005600083FFA7CEE5CE81E080933A0280933602E6
:100570008091220281118CCE8FCE10923A0280910E
:1005800022028111A0CE9ACE81E08093390280931D
:100590003502809122028111D4CED7CE8091030101
:1005A00084FFE0CE1ECF1092390280912202811189
:1005B000E3CEDDCE81E080933802809334028091D7
:1005C0002202811117CF1ACF8091030185FF23CF1B
:1005D00066CF1092380280912202811126CF20CF5F
:1005E00081E080933702809333028091220281114F
:1005F0005FCF62CF8091030186FF6BCF1AC010924C
:1006000037028091220281116ECF68CF8091030161
:1006100083FFB3CF8DCE8091030184FFC4CFE1CEA1
:100620008091030185FFD5CF3ACF8091030186FFEA
:10063000E6CF9F918F917F916F914F913F912F9135
:100640000F900FBE0F901F9018951F920F920FB62C
:100650000F9211248F9381E080932202C0988F9192
:100660000F900FBE0F901F901895EBE0F1E0808186
:10067000806880831092840010928500A4E8B0E026
:10068000E5E8F0E08C91208190E0922B8039914058
:10069000CCF31092840010928500EBE0F1E08081B1
:1006A0008F77808308950F931F93CF93DF93E0E0BC
:1006B000F2E040E050E0C1E0D0E0082F10E0A8E018
:1006C000B1E09E01042E02C0220F331F0A94E2F70C
:1006D00020233123042E02C0359527950A94E2F792
:1006E0002130310559F42C91CE01008002C0880FD1
:1006F000991F0A94E2F7822B8C930CC02C91BE01B7
:10070000008002C0660F771F0A94E2F7962F90953B
:1007100092239C934F5F5F4F32964830510589F684
:10072000A4DFDF91CF911F910F910895EBE0F1E0ED
:1007300080818F7D808380818F7B8083E8E0F1E002
:1007400080818F77808380818F7B808380818F7D84
:10075000808380818F7E80838081877F808380817A
:100760008B7F808380818D7F808380818160808387
:100770007CDF1092840010928500A4E8B0E0E5E8E8
:10078000F0E08C91208190E0922B803D9740CCF35B
:10079000109284001092850008950F931F93CF93B9
:1007A000DF938C01EBE0F1E080818F7D808380819D
:1007B0008F7B8083E8E0F1E0808180688083E0E0E7
:1007C000F2E040E050E0C1E0D0E0A8E0B1E09E01FE
:1007D000042E02C0220F331F0A94E2F72023312394
:1007E000042E02C0359527950A94E2F72130310591
:1007F00059F42C91CE01008002C0880F991F0A94F1
:10080000E2F7822B8C930CC02C91BE01008002C0B9
:10081000660F771F0A94E2F7962F909592239C9388
:100820004F5F5F4F32964730510589F61EDFDF91EB
:10083000CF911F910F910895EBE0F1E080818F7DC2
:10084000808380818F7B8083E8E0F1E080818F77F7
:10085000808380818F7B808380818F7D8083808176
:100860008F7E80838081877F808380818B7F808360
:1008700080818260808380818E7F8083F6DE10920B
:10088000840010928500A4E8B0E0E5E8F0E08C91E7
:10089000208190E0922B803D9740CCF31092840011
:1008A000109285000895EBE0F1E080818062808302
:1008B00080818F7B808308950F931F93CF93DF9365
:1008C0008C01F1DFF8018081811109C00EC0EBDEDF
:1008D000C017D10751F089918111F9CF06C0E3DE2D
:1008E000E8012196005F1F4FF6CFDF91CF911F9156
:1008F0000F910895EBE0F1E080818F7D808380810E
:100900008F7B8083E8E0F1E080818F778083808136
:100910008F7B808380818F7D808380818F7E8083A9
:1009200080818860808380818460808380818D7FE6
:10093000808380818E7F808398CE0895EBE0F1E004
:1009400080818F7D808380818F7B8083E8E0F1E0F0
:1009500080818F77808380818F7B8083808180629C
:1009600080838081806180838081886080838081B2
:100970008B7F808380818D7F808380818E7F808349
:1009800074CE0895EBE0F1E080818F7D80838081DB
:100990008F7B8083E8E0F1E080818F7780838081A6
:1009A0008F7B808380818F7D808380818F7E808319
:1009B0008081877F80838081846080838081826062
:1009C000808380818E7F808350CE0895E1E8F0E0BF
:1009D000808181608083E7E0F1E080818FEF808318
:1009E000EAE0F1E08081806E8083A0DE83DFA6DF15
:1009F000C9DF22CF0895CF93DF93CDB7DEB76297DB
:100A00000FB6F894DEBF0FBECDBFCE0142968ADB93
:100A1000CE01429688DBCEDBDEDBD8DF0F2EF8EA94
:100A2000AF2EB12CF02D0F2EFAEACF2ED12CF02DB7
:100A30000F2EFCED8F2EF5E09F2EF02D0F2EF0E106
:100A4000EF2EF2E0FF2EF02D8E010F5F1F4F8091F1
:100A50003B02882391F0F50191828082F601918218
:100A60008082FFE32DE083E0F15020408040E1F7F9
:100A700000C0000010923B0219C080913C02882304
:100A800019F010923C0212C080912D0290912E021A
:100A900096958795F5019183808380912D029091A1
:100AA0002E0296958795F601918380833FDEF601AD
:100AB00020813181F501808191813F932F939F9314
:100AC0008F93FF92EF921F930F9328D0C801F4DE0B
:100AD00080E490E062DE80912B0290912C0296954A
:100AE00087959F938F9380912D0290912E029695DA
:100AF00087959F938F93FF92EF921F930F930ED042
:100B0000C801DADE8FE493EC0197F1F700C0000032
:100B10000FB6F894DEBF0FBECDBF99CF0F931F93D2
:100B2000CF93DF93CDB7DEB72E970FB6F894DEBF25
:100B30000FBECDBF0E891F8986E08C831A8309837F
:100B40008FEF9FE79E838D83AE01465E5F4F688D7A
:100B5000798DCE01019611D02F813885F801E20FF1
:100B6000F31F10822E960FB6F894DEBF0FBECDBFD6
:100B7000DF91CF911F910F9108952F923F924F9245
:100B80005F926F927F928F929F92AF92BF92CF921D
:100B9000DF92EF92FF920F931F93CF93DF93CDB726
:100BA000DEB72C970FB6F894DEBF0FBECDBF7C0129
:100BB0006B018A01FC0117821682838181FFB0C11B
:100BC000CE0101964C01F7019381F60193FD8591C9
:100BD00093FF81916F01882309F49EC1853239F416
:100BE00093FD859193FF81916F01853221F4B701C7
:100BF00090E0C7D1E8CF512C312C20E02032A0F476
:100C00008B3269F030F4803259F0833269F420611C
:100C10002CC08D3239F0803339F4216026C0226037
:100C2000246023C0286021C027FD27C030ED380F85
:100C30003A3078F426FF06C0FAE05F9E300D1124AA
:100C4000532E13C08AE0389E300D1124332E2062BB
:100C50000CC08E3221F426FD5FC1206406C08C36A4
:100C600011F4206802C0883641F4F60193FD8591A5
:100C700093FF81916F018111C1CF982F9F7D955472
:100C8000933028F40C5F1F4FFFE3F9830DC08336C8
:100C900031F0833771F0833509F057C021C0F80176
:100CA000808189830E5F1F4F44244394512C54014B
:100CB00014C03801F2E06F0E711CF801A080B18001
:100CC00026FF03C0652D70E002C06FEF7FEFC50106
:100CD0002C874CD12C0183012C852F77222E16C016
:100CE0003801F2E06F0E711CF801A080B18026FF80
:100CF00003C0652D70E002C06FEF7FEFC5012C8748
:100D00002AD12C012C852068222E830123FC19C0B6
:100D1000832D90E048165906A0F4B70180E290E0D8
:100D200030D13A94F5CFF50127FC859127FE8191CA
:100D30005F01B70190E025D131103A94F1E04F1AEC
:100D400051084114510479F7DEC0843611F0893618
:100D500031F5F80127FF07C060817181828193819D
:100D60000C5F1F4F08C060817181072E000C880B3B
:100D7000990B0E5F1F4F2F76722E97FF09C090952B
:100D80008095709561957F4F8F4F9F4F2068722E91
:100D90002AE030E0A4012DD1A82EA81843C0853741
:100DA00029F42F7EB22E2AE030E025C0F22FF97F01
:100DB000BF2E8F36C1F018F4883579F0ADC080377A
:100DC00019F0883721F0A8C02F2F2061B22EB4FE71
:100DD0000DC08B2D8460B82E09C024FF0AC09F2F40
:100DE0009660B92E06C028E030E005C020E130E072
:100DF00002C020E132E0F801B7FE07C060817181D6
:100E0000828193810C5F1F4F06C06081718180E0F9
:100E100090E00E5F1F4FA401ECD0A82EA818FB2D68
:100E2000FF777F2E76FE0BC0372D3E7FA51450F442
:100E300074FE0AC072FC08C0372D3E7E05C0BA2C75
:100E4000372D03C0BA2C01C0B52C34FF0DC0FE01F4
:100E5000EA0DF11D8081803311F4397E09C032FF23
:100E600006C0B394B39404C0832F867809F0B3947A
:100E700033FD12C030FF06C05A2CB31418F4530CC3
:100E80005B18B32CB31460F4B70180E290E03C87A8
:100E900078D0B3943C85F6CFB31410F43B1801C05E
:100EA000312C34FF11C0B70180E390E03C8769D05A
:100EB0003C8532FF16C031FD03C088E790E002C0D8
:100EC00088E590E0B7010CC0832F867851F031FFA0
:100ED00002C08BE201C080E237FD8DE2B70190E0F5
:100EE00050D0A51430F4B70180E390E04AD05A9472
:100EF000F8CFAA94F401EA0DF11D8081B70190E0CA
:100F000040D0A110F6CF332009F45DCEB70180E2C6
:100F100090E037D03A94F7CFF7018681978102C0ED
:100F20008FEF9FEF2C960FB6F894DEBF0FBECDBFAC
:100F3000DF91CF911F910F91FF90EF90DF90CF90B5
:100F4000BF90AF909F908F907F906F905F904F90E9
:100F50003F902F900895FC01059061507040011062
:100F6000D8F7809590958E0F9F1F0895FC016150D2
:100F7000704001900110D8F7809590958E0F9F1FBB
:100F800008950F931F93CF93DF93FB01238121FDDE
:100F900003C08FEF9FEF28C022FF16C04681578104
:100FA000248135814217530744F4A081B1819D010A
:100FB0002F5F3F4F318320838C93268137812F5FB2
:100FC0003F4F3783268310C0EB01092F182F008471
:100FD000F185E02D1995892BE1F68E819F8101968F
:100FE0009F838E83812F902FDF91CF911F910F913F
:100FF0000895FA01AA27283051F1203181F1E894AF
:101000006F936E7F6E5F7F4F8F4F9F4FAF4FB1E0FB
:101010003ED0B4E03CD0670F781F891F9A1FA11DF6
:10102000680F791F8A1F911DA11D6A0F711D811DF7
:10103000911DA11D20D009F468943F912AE0269FBC
:1010400011243019305D3193DEF6CF010895462F1B
:101050004770405D4193B3E00FD0C9F7F6CF462FFC
:101060004F70405D4A3318F0495D31FD4052419365
:1010700002D0A9F7EACFB4E0A69597958795779522
:101080006795BA95C9F700976105710508959B01A9
:10109000AC010A2E06945795479537952795BA9532
:1010A000C9F7620F731F841F951FA01D0895F89440
:0210B000FFCF70
:1010B2000000010002000300040005000600070012
:0E10C2002575202020202575202020202000CC
:00000001FF
