S00F000050574D746573742E7372656361
S113000071C000008EC000008CC000008AC00000D7
S113001088C0000086C0000084C0000082C00000C8
S113002080C00000FDC0000018C100007AC00000BC
S113003078C0000076C0000074C0000072C00000E8
S113004070C000006EC000006CC000006AC00000F8
S113005068C0000066C0000064C0000062C0000008
S113006060C000005EC000005CC000005AC0000018
S113007058C0000056C0000054C0000052C0000028
S113008050C000004EC000004CC00000D8C20000A8
S113009048C0000046C0000044C0000042C0000048
S11300A040C000003EC000003CC000003AC0000058
S11300B038C0000036C0000034C0000032C0000068
S11300C030C000002EC000002CC000002AC0000078
S11300D028C0000026C0000024C0000022C0000088
S11300E020C0000011241FBECFEFD1E2DEBFCDBF80
S11300F000E00CBF12E0A0E0B2E0EEE1FBE000E0C3
S11301000BBF02C007900D92A435B107D9F722E0C6
S1130110A4E5B2E001C01D92A337B207E1F765D4AC
S1130120FCC46ECF0895E0EAF0E08081826A8083A7
S1130130E0E2F1E08081826A8083E1EAF0E080819C
S113014081618083E1E2F1E080818161808380E0EC
S113015090E19093A7008093A60090932701809349
S113016026011092A9001092A8001092AB001092E0
S1130170AA00109229011092280110922B011092CA
S11301802A01EAE0F1E0808188618083E1E0F1E026
S11301908081886180831092A5001092A40010923F
S11301A02501109224010895E8E6F0E0808183603F
S11301B08083EBE6F0E0808180618083ECE6F0E010
S11301C08081806F808378940895109270021092D9
S11301D06F0210926E0210926D0210926C021092D5
S11301E06B0210926A0210926902109268021092D5
S11301F067021092660210926502109264021092D5
S113020063021092620210926102E1E9F0E08081DF
S113021081608083E1E7F0E08081816080830895DC
S11302201F920F920FB60F9211248F939F931C9BD2
S113023004C081E08093720203C081E08093710264
S113024087E893E10197F1F700C000009F918F9137
S11302500F900FBE0F901F9018951F920F920FB61C
S11302600F9211242F933F934F936F937F938F9308
S11302709F938091030183FF6BC180917002811170
S1130280BFC16BC181E08093570202C01092570234
S1130290809194002091950090E0922B90936002BD
S11302A080935F023FC080917002811160C13AC0A7
S11302B080915702811116C004C08091570288238F
S11302C089F0809194002091950090E0922B2091E8
S11302D05F0230916002821B930B909368028093BB
S11302E0670210C0809194002091950090E0922BB9
S11302F020915F0230916002821B930B90936802FD
S11303008093670210926C0280916B0281110AC083
S113031080916A02811106C080916902811102C034
S1130320109258028091030184FF32C180916F02C0
S113033081116BC123C181E08093560202C01092E7
S11303405602809194002091950090E0922B909316
S11303505E0280935D023FC080916F0281111DC1D6
S11303603AC080915602811116C004C08091560291
S1130370882389F0809194002091950090E0922B3D
S113038020915D0230915E02821B930B9093660272
S11303908093650210C0809194002091950090E0B4
S11303A0922B20915D0230915E02821B930B9093FD
S11303B068028093670210926B0280916C02811133
S11303C00AC080916A02811106C08091690281117C
S11303D002C0109258028091030185FFEFC0809102
S11303E06E02811117C1E0C081E08093550202C002
S11303F010925502809194002091950090E0922BE8
S113040090935C0280935B0244C080916E028111E0
S1130410DAC03FC080915502811116C004C080919A
S11304205502882389F0809194002091950090E0F2
S1130430922B20915B0230915C02821B930B909370
S113044064028093630215C09091940040919500DA
S113045060915B0270915C0222E030E0261B370B56
S1130460892F90E0942B820F931F909364028093C2
S1130470630210926A0280916C0281110AC0809119
S11304806B02811106C080916902811102C0109231
S113049058028091030186FFA7C080916D028111EB
S11304A0BEC098C081E08093540202C010925402EE
S11304B0809194002091950090E0922B90935A02A1
S11304C080935902B0C080916D02811192C0ABC07B
S11304D080915402811116C004C080915402882373
S11304E089F0809194002091950090E0922B2091C6
S11304F0590230915A02821B930B909362028093AB
S1130500610215C090919400409195006091590248
S113051070915A0223E030E0261B370B892F90E0BC
S1130520942B820F931F9093620280936102109226
S1130530690280916C02811176C080916B028111F5
S113054072C080916A0281116EC0109258026BC011
S11305508091030183FFA7CEE5CE81E080937002F2
S113056080936C028091580281118CCE8FCE1092B0
S11305707002809158028111A0CE9ACE81E08093BE
S11305806F0280936B02809158028111D4CED7CE32
S11305908091030184FFE0CE1ECF10926F02809100
S11305A058028111E3CEDDCE81E080936E02809308
S11305B06A0280915802811117CF1ACF80910301EA
S11305C085FF23CF66CF10926E028091580281116D
S11305D026CF20CF81E080936D02809369028091C1
S11305E0580281115FCF62CF8091030186FF6BCFE8
S11305F01AC010926D028091580281116ECF68CF9B
S11306008091030183FFB3CF8DCE8091030184FFDA
S1130610C4CFE1CE8091030185FFD5CF3ACF80913D
S1130620030186FFE6CF9F918F917F916F914F9148
S11306303F912F910F900FBE0F901F9018951F920E
S11306400F920FB60F9211248F9381E0809358027A
S1130650C0988F910F900FBE0F901F901895EBE0EC
S1130660F1E080818068808310928400109285007C
S1130670A4E8B0E0E5E8F0E08C91208190E0922BD2
S113068080399140CCF31092840010928500EBE005
S1130690F1E080818F77808308950F931F93CF9328
S11306A0DF93E0E0F2E040E050E0C1E0D0E0082F6A
S11306B010E0A8E0B1E09E01042E02C0220F331F17
S11306C00A94E2F720233123042E02C0359527959E
S11306D00A94E2F72130310559F42C91CE010080BF
S11306E002C0880F991F0A94E2F7822B8C930CC0E6
S11306F02C91BE01008002C0660F771F0A94E2F7B6
S1130700962F909592239C934F5F5F4F329648307B
S1130710510589F6A4DFDF91CF911F910F910895C0
S1130720EBE0F1E080818F7D808380818F7B80830B
S1130730E8E0F1E080818F77808380818F7B808304
S113074080818F7D808380818F7E80838081877F7D
S1130750808380818B7F808380818D7F8083808173
S1130760816080837CDF1092840010928500A4E86D
S1130770B0E0E5E8F0E08C91208190E0922B803DA0
S11307809740CCF3109284001092850008950F9343
S11307901F93CF93DF938C01EBE0F1E080818F7D99
S11307A0808380818F7B8083E8E0F1E080818068B2
S11307B08083E0E0F2E040E050E0C1E0D0E0A8E077
S11307C0B1E09E01042E02C0220F331F0A94E2F707
S11307D020233123042E02C0359527950A94E2F78D
S11307E02130310559F42C91CE01008002C0880FCC
S11307F0991F0A94E2F7822B8C930CC02C91BE01B2
S1130800008002C0660F771F0A94E2F7962F909536
S113081092239C934F5F5F4F32964730510589F680
S11308201EDFDF91CF911F910F910895EBE0F1E06E
S113083080818F7D808380818F7B8083E8E0F1E0FD
S113084080818F77808380818F7B808380818F7D7F
S1130850808380818F7E80838081877F8083808175
S11308608B7F808380818260808380818E7F808380
S1130870F6DE1092840010928500A4E8B0E0E5E86A
S1130880F0E08C91208190E0922B803D9740CCF356
S113089010928400109285000895EBE0F1E08081CD
S11308A08062808380818F7B808308950F931F9360
S11308B0CF93DF938C01F1DFF8018081811109C0AE
S11308C00EC0EBDEC017D10751F089918111F9CF29
S11308D006C0E3DEE8012196005F1F4FF6CFDF91EB
S11308E0CF911F910F910895EBE0F1E080818F7D0E
S11308F0808380818F7B8083E8E0F1E080818F7743
S1130900808380818F7B808380818F7D80838081C1
S11309108F7E8083808188608083808184608083EF
S113092080818D7F808380818E7F808398CE08959F
S1130930EBE0F1E080818F7D808380818F7B8083F9
S1130940E8E0F1E080818F77808380818F7B8083F2
S113095080818062808380818061808380818860DF
S1130960808380818B7F808380818D7F8083808161
S11309708E7F808374CE0895EBE0F1E080818F7DDB
S1130980808380818F7B8083E8E0F1E080818F77B2
S1130990808380818F7B808380818F7D8083808131
S11309A08F7E80838081877F808380818460808341
S11309B080818260808380818E7F808350CE089581
S11309C0E1E8F0E0808181608083E7E0F1E080810C
S11309D08FEF8083EAE0F1E08081806E8083A0DE87
S11309E083DFA6DFC9DF22CF0895CF93DF931F9261
S11309F0CDB7DEB7CE01019695DBCE01019693DB30
S1130A00D3DBE3DBDDDF0F2EF8EA8F2E912CF02D04
S1130A100F2EFAEAAF2EB12CF02D0F2EF8E2CF2EC6
S1130A20DD24D394F02D0F2EFAE2EF2EFF24F3945D
S1130A30F02D06E212E0809171028823E1F0F401C6
S1130A4011830083F50111830083F6011183008370
S1130A50F7011183008364DE80E192E027DFFFE386
S1130A602DE083E0F15020408040E1F700C0000019
S1130A7010927102E0CF80917202882319F01092D3
S1130A807202D9CF80916302909164029695879502
S1130A90F40191838083809163029091640296951E
S1130AA08795F5019183808380916302909164021C
S1130AB096958795F6019183808380916302909146
S1130AC0640296958795F7019183808329DE8AE1F4
S1130AD092E0ECDE80E490E05ADE8AE292E0E6DE28
S1130AE0FFE72AE186E0F15020408040E1F700C0B2
S1130AF0000016DE84E392E0D9DE80E490E047DE75
S1130B0083E492E0D3DE9FEBE7E2F9E09150E0402A
S1110B10F040E1F700C000008ECFF894FFCF54
S1130B1E00000100020003000400050006000700A7
S1130B2E53616C75742042656E0020202052656AF4
S1130B3E6F7569732D746F69200020202020204C5E
S1130B4E617521002020204C65206D65696C6C65F3
S1130B5E75720020726573746520612076656E6906
S1070B6E72212100CB
S9030000FC
