S00F000050574D746573742E7372656361
S113000071C0000081C000007FC000007DC00000FE
S11300107BC0000079C0000077C0000075C00000FC
S113002073C00000D2C00000E5C000006DC0000035
S11300306BC0000069C0000067C0000065C000001C
S113004063C0000061C000005FC000005DC000002C
S11300505BC0000059C0000057C0000055C000003C
S113006053C0000051C000004FC000004DC000004C
S11300704BC0000049C0000047C0000045C000005C
S113008043C0000041C000003FC0000039C100006F
S11300903BC0000039C0000037C0000035C000007C
S11300A033C0000031C000002FC000002DC000008C
S11300B02BC0000029C0000027C0000025C000009C
S11300C023C0000021C000001FC000001DC00000AC
S11300D01BC0000019C0000017C0000015C00000BC
S11300E013C0000011241FBECFEFD1E2DEBFCDBF8D
S11300F000E00CBF22E0A0E0B2E001C01D92AD30F0
S1130100B207E1F70ED147C17BCF0895E0EAF0E0F2
S11301108081826A8083E0E2F1E08081826A808368
S1130120E1EAF0E0808181618083E1E2F1E08081B5
S1130130816180831092A2001092220188E0809352
S1130140A7001092A600809327011092260182E056
S11301508093A9001092A8008093AB001092AA008B
S1130160809329011092280180932B0110922A0177
S1130170EAE0F1E0808188618083E1E0F1E0808160
S1130180886180831092A5001092A400109225012A
S1130190109224012FEF84E39CE021508040904092
S11301A0E1F700C000000895E8E6F0E08081836094
S11301B08083EBE6F0E0808180618083ECE6F0E010
S11301C08081806F8083789408951F920F920FB678
S11301D00F9211248F931C9B04C081E080930C0226
S11301E003C081E080930B028F910F900FBE0F909C
S11301F01F9018951F920F920FB60F9211242F93F0
S11302003F938F939F938091030183FF56C0809106
S11302100A02811168C056C081E08093000202C0C6
S113022010920002809194002091950090E0922B0E
S113023090930302809302025AC080910A028111B2
S11302404BC055C080910002811116C004C080913A
S11302500002882389F0809194002091950090E019
S1130260922B2091020230910302821B930B9093F4
S113027005028093040210C080919400209195009F
S113028090E0922B2091020230910302821B930B87
S1130290909305028093040210920902809108024F
S11302A0811125C080910702811121C0809106022D
S11302B081111DC0109201021AC08091030183FFB5
S11302C0BCCF15C081E080930A028093090280911B
S11302D001028111A1CFA4CF10920A0280910102E0
S11302E08111B5CFAFCF8091030183FFF5CF9F91EB
S11302F08F913F912F910F900FBE0F901F901895E3
S11303001F920F920FB60F9211248F9381E0809366
S1130310010288B388BB8F910F900FBE0F901F907E
S11303201895CF93DF931F92CDB7DEB7CE01019618
S1130330ECDECE010196EADE37DFA9EAB0E092E016
S1130340E8EAF0E033E020E880910C02882371F0C1
S11303509C9320834FE35DE083E041505040804014
S1130360E1F700C0000010920C02EECF80910B0266
S1130370882371F03C9310824FE35DE083E04150A9
S113038050408040E1F700C0000010920B02DCCF27
S10D03909C931082D9CFF894FFCF9C
S9030000FC
